:0200000407FCF7
:10000000286DFC07BD01FC07C501FC07DD01FC07ED
:1000100000000000000000000000000000000000E0
:10002000000000000000000000000000F501FC07D7
:100030000000000000000000F701FC079943FC07E6
:10004000C520FC07FF20FC07A526F0074D1BFC0779
:10005000F51FFC07FB01FC079517FC07FB01FC07DC
:10006000FB01FC07FB01FC077B14FC077F14FC076A
:100070008314FC078714FC078B14FC07FB01FC07A7
:100080000115FC07FB01FC07FB01FC07FB01FC075A
:10009000FB01FC07FB01FC07FB01FC07FB01FC0764
:0800A000000000008E070E00B5
:0200000407FCF7
:100110000448854605F0D2F8004800479103FC07E3
:10012000C046C046286DFC0710B51F480189C908A4
:10013000C9000181018A1D4CC90713D0808800289D
:1001400010D11B481949428820310A8182888A804F
:10015000C2880A80618AFF22813200889143C001EF
:10016000014361821349062008800F2000F00EF839
:10017000012000F00BF8002000F008F8608904214D
:10018000884360810020208062B610BD002809DB12
:10019000C106C90E0120884007490860BFF34F8F90
:1001A000BFF36F8F70470000000300500000005045
:1001B000A000FC070034005080E100E00F488047B9
:1001C0000F48004704207146084203D0EFF309802E
:1001D0000C490847EFF308800A4908470420714694
:1001E000084203D0EFF3098007490847EFF308807E
:1001F00005490847FEE7FEE7FEE7FEE72901FC07A1
:100200001101FC07A502FC070D02FC0710B504460E
:1002100020484089C00508D51B2000F0EFFF1D488D
:1002200060300188012211430180052212071088E5
:10023000518A0007800FFF2381339943C001014396
:10024000518215492068086060684860A06888602D
:10025000E068C8602069086160694861A0698861D8
:10026000E069C8610C620D48836A4B62C36A8B62A5
:10027000036BCB62C36B0B63436B4B63806B886315
:10028000074908200880908AC00601D500BE10BD2D
:10029000FEE70000200000500090FC0700ED00E0A9
:1002A0000033005070B5052504462D07288A042127
:1002B00008432882288940210843288124480126B0
:1002C000066024490820088023484089C00507D5D6
:1002D0001B2000F093FF20486030018831430180EB
:1002E0002888698A0007800FFF2281329143C0016C
:1002F0000143698219492068086160684861A06803
:100300008861E068C8612069086260694862A06924
:100310008862E069C8620C631148826A4A63C26AF3
:100320008A63026BCA63C26B0C4940310A60426B3C
:100330004A60806B8860A88AC00608D500BE688ABB
:10034000012180088000C9030843688270BDFEE770
:1003500080E200E000330050200000504090FC0795
:1003600000ED00E070B5094E0D46044611463046DA
:1003700001F022FCAAB201232146304601F090FC94
:1003800070BD10B5014801F0C3FC10BD0011005054
:1003900008B500F0C7F800F075FB05242407082510
:1003A000C826A84F0FE0012000F02EFA0020009090
:1003B000042168464DF7C2FB002801D000F0E7FA9F
:1003C00060F7AEFC0BE02089000608D5012080070D
:1003D000006B000403D49C480078C0070BD072B6B1
:1003E00001F022FF042810D0022815D0032813D0D2
:1003F000012821D021E05DF700F8002000F004FA88
:10040000924800780428DBD1CDE791480078012894
:1004100001D0032000E0022000F04EF8A08AC006C0
:1004200001D58C48058030BFA08AC00601D5894817
:10043000458000F005F800E030BF62B63E80C2E7BC
:1004400010B500F07FF9844902280CD1052000077F
:10045000408AC005820F814802800A8942808A88CA
:1004600082800A88C28048896021C00500280ADB92
:10047000794860300088C00705D0774A2032508A1A
:10048000884320305082764882888A432032828096
:100490007448C078002807D07348006801898AB280
:1004A000416803205CF70AF903F043F96F480169DA
:1004B00004229143016110BD38B5694605240870D6
:1004C0002407218A054604221143218200F063F8A3
:1004D000614841896022C905002905DB5E4B203354
:1004E000598A9143403159825D498B889343403307
:1004F0008B80022D01D0032D13D18188490849003A
:100500008180002000900099491C00911429FADB99
:10051000618989088900491C618161894906FCD586
:10052000608038BDF0B55248524905230127524A30
:10053000884201D31C4604E0904201D33C4600E0CF
:1005400000244E4D4E4E4748AD194E4E8470AD19A5
:100550000126B6034560B54201D8142500E0002508
:100560002540494C45708C4213D2484B2546EB1828
:10057000944205D38B4201D211230AE03B4608E0A6
:10058000934201D2142304E08B4201D2102300E0F5
:1005900000230370F0BDF8B5022801D0032848D12C
:1005A000324A136904210B4313612D4A203A93897F
:1005B0005B085B009381052410222A4E2407022841
:1005C0007578608A36D010436082608A0843608202
:1005D0007068C01C870801F097FC608A10210843EE
:1005E00060822B487F1E0762EFF31080012181F3A8
:1005F00010882188802291432180002800D001208A
:1006000080F3108814484089C0050AD501F06AFCBF
:100610000B2000F0F3FD10486030018801221143E7
:10062000018003205CF770F8002806D00120F070EC
:100630002583F8BD90436082F3E70020F0703078A6
:100640000540F5E70031005054BAFC071C8DFC074B
:10065000B4BAFC070033005020000050A000FC0793
:1006600020030050C88BFC0758B9FC0700ED00E0E0
:10067000C08BFC070070FC070040FC071001FC0762
:10068000385E0000000004F8286DFC070C04000030
:100690000000F407704770B50D46002442F72FF9AB
:1006A0002855641CE4B2202CF8D3002070BD10B58E
:1006B0005EF710FD10BD10B55EF715FD10BD70475B
:1006C000704770470649884200D000BE05210907DF
:1006D000488A012280088000D20310434882704774
:1006E0001111111144480178002902D08021417074
:1006F00070474249002008704149C87070473E4920
:100700000A78002A03D000280CD002200BE0002831
:1007100001D0022000E0012038490870384901204A
:10072000C87070470120803048707047002805D09D
:10073000012804D0022804D10120E0E7D2E70020FC
:10074000FBE770472D4900200978002904D00129D2
:1007500003D0022900D102207047012070472648AB
:100760008178002904D0491E0906090E817019D12B
:1007700042780021002A04D09207920F0270417043
:1007800004E00278002A01D0521E02701206120EF6
:10079000017007D0012A03D0022A03D10120AEE75D
:1007A0000020FCE7704700B5134A9078401C907019
:1007B0001078002805D1FFF7C5FF431CFFF792FF13
:1007C000137000BD0C48C07870470020EFF3108113
:1007D000012282F31088052212071289120605D41D
:1007E0000848028901231A4302811846002900D0D3
:1007F000012181F310887047D08BFC07B4BAFC0745
:1008000054BAFC070033005010B5FE4CA178002903
:1008100021D0FD49002803D008884007FCD402E01D
:100820000888400717D4CA88888811040A1800204D
:10083000A070F64800235043800B401C4008E06144
:100840001F204006492162F70BFEE162A06264218D
:100850004843000CA06110BDEB4948800888032282
:10086000104308800888042210430880E5490120CD
:100870008870704770B505200007018930229143C8
:1008800001810189802211430181018908221143DC
:100890000181DF490A88520852000A8043891822E0
:1008A00093434381048940231C430481048A042523
:1008B000AC430482848AA407FCD5D24DAA246C617F
:1008C000CD8801240F263602B5430B263602AD191A
:1008D000CD80CD882543CD8044899443083444811C
:1008E0004A88520852004A800189994301810120B7
:1008F00080070168821591430160C64801683F2264
:1009000052029143421489180160016802031143A5
:10091000016070BD10B5BB490122D203C969904284
:1009200005D304F001FD8905800A084310BD484342
:10093000800A10BDEEE710B5B24989694843B6494F
:10094000401849005EF75EFB10BDF4E770B500F09B
:10095000DEFB0446FFF7F9FFAA4D288120463C3014
:10096000FFF7F3FFAD49001D88602A891018C01DEC
:10097000AB4A48601278022A01D111304860FFF773
:10098000D9FFA849401880B25CF7C8FD70BDF0B52A
:10099000A54985B00120C863C86B0028FCD101209F
:1009A0008007C069974C2169884201D200212161EA
:1009B0001922411AD20191422AD320619B48018811
:1009C0000391418802918788C688994903C900909C
:1009D0000191684600F0BDFE00F0E5FE05460120ED
:1009E00020567F280CD0281A40B2002801DA404255
:1009F00040B2082805DBE068401CE06001F0D1FD52
:100A000065708A48029941808780C6800399018079
:100A100005B0F0BD0020704710B586490020086081
:100A2000FFF794FF01208007016B4900490801632B
:100A300010BD08B57349888075498A8852085200EC
:100A40008A80002200920099491C00911429FADB47
:100A5000052109074B899B089B005B1C4B814B8937
:100A60005B06FCD54880E120C0000092521C009239
:100A70008242FBDB48898008800048814889000663
:100A8000FCD508BDF8B56C48C82101800021418023
:100A90006A480824448000F0F7FB694DA98868463D
:100AA00001800088C046C0466846008804239843F9
:100AB0003ED00020A8806248203001880F22920298
:100AC00011430180524E2036718A21437182504970
:100AD00060310A880625AA430A800588CA011543A1
:100AE0000580758A95437582B28A0E25AA43921DA8
:100AF000B282474A5589534FED050D881DD5BD4338
:100B00005701ED190D800D880F022D052D0DED19E2
:100B10000D8005882543058005889D4305800D8847
:100B20006D086D000D8001884025A943018020E0FB
:100B3000288A400840002882BDE7BD4303277F0282
:100B4000ED190D800D880F273F033D430D8005886B
:100B5000A543058005889D430580B58A03277F024C
:100B6000BD43B5820D8801273D430D80518949075A
:100B7000FCD50188032529430180718A6025A9439A
:100B8000203171828188A9432031818001201D4E4E
:100B9000052530702D07E88AC02188438030E8821F
:100BA000108A000A00021082108B1C218843083032
:100BB000108325480380A8880121C9028843A880A2
:100BC00048012249086001F09FF9022001F061F913
:100BD0001F4F3869C0B2AA2875D0012029880C227D
:100BE0009143800001432980C046C046054820301B
:100BF00000F0B6FA00F02AF900F086FA002864D076
:100C000028E00000D88BFC070016005011110100ED
:100C1000200000500002004020A107004860FC07AF
:100C2000B4BAFC07E2040000C00000400015005008
:100C30005C5BFC07A8B9FC07003100500033005092
:100C400000030050000F00000002005080E200E0AE
:100C5000C07FF80700F058FAFFF7EBFE7F207070B6
:100C6000B86A1E49086001F07FF900F041F802F00F
:100C700060FD012041F749FEFFF7FCFD18480068C0
:100C800041F7E8FA17490020C87008710120800771
:100C9000016882151143016000F0C0FD1E20FFF7BE
:100CA000DBFD0120FFF7B0FDFFF71CFD02F0DFF8D0
:100CB00001F072FFFFF7B0FE0B49C82008800B4817
:100CC0004480F8BDFFE7032088E73869C0B2AA284E
:100CD00001D06E20C0E78020BEE700004860FC071E
:100CE0004CB9FC0754BAFC070031005000330050E7
:100CF00070B53548334D006834492C6892B088424D
:100D000005D005225202324932485EF7F5F9324EDB
:100D1000324930465EF709FA0721314809025EF789
:100D200004FA2C6004F0B2FA2F492E4808602F48CC
:100D30000024048030222E492E485EF7DDF929492F
:100D40000822083903C91191109010A92A485EF7AA
:100D5000D3F924494022283168465EF7CDF9402274
:100D6000694626485EF7C8F9254827490470254892
:100D70000860274925480860274926480860274910
:100D80000A20087026482749047032200870264936
:100D900005200860254A0121116025490860254980
:100DA00006200860244907200860244908200860BC
:100DB000FF20234907300860224908602248066066
:100DC00012B070BD5CBAFC079CB8FC076587341292
:100DD00000B0FC079C8EFC0700A0FC07AC140000D0
:100DE00000B9FC076C5BFC0760BAFC07088CFC07C9
:100DF0007CFCF10700BAFC07DAB9FC07B0BCFC07C1
:100E0000FDB9FC07603FF20750B9FC07F458FC0736
:100E100054B9FC07705AFC0758B9FC07B0B9FC0775
:100E2000B1B9FC07D9B9FC075CB9FC0760B9FC078C
:100E300064B9FC0768B9FC076CB9FC0770B9FC071A
:100E400048B9FC0744B9FC074CB9FC07F0B5B84CED
:100E500089B000202076607603900120C046C0460D
:100E6000B4480169B448814202D0C01709B0F0BD4E
:100E7000B04F0425403FE819016D0191090F092980
:100E800010D001220198920790427AD3AB4A904247
:100E900077D8AB490835884274D1E819C16CA948A4
:100EA0004180A6E0019A01991204C9B2160E1129D7
:100EB00035D007DC0B005EF773F908747474747432
:100EC000740D1F7412390B005EF76AF9063A4B5D18
:100ED0006B60656B207EB200C100954840380818F1
:100EE0009449143169185EF707F9207E8019C0B261
:100EF0002076042854D854E0607EB200C1008C48AB
:100F0000403808188B491030143169185EF7F4F82E
:100F1000607E8019C0B260760C2841D841E0416DF6
:100F200089B20291406D000C01460490029800F0D5
:100F3000F1F8A0800499029800F0F4F8E08030E025
:100F4000416D89B20491406D000C014602900498F5
:100F500000F0E0F820810299049800F0E3F8608145
:100F60001FE0039805A9800040187249B2001431AF
:100F700069185EF7C1F803988019039002280FD80A
:100F80000FE02BE010E0406D60820AE0416D6848A0
:100F90004038016405E0406D0004000CA08200D1DF
:100FA00000BEB00045194DE065492639884203D19D
:100FB000E819C06CE0821CE06149091F884204D135
:100FC000E819C06C5F49888013E05D4908398842A0
:100FD0000FD1E819C06C5B49C8800AE007292ED000
:100FE00008292FD00A292DD006292BD0401C07D044
:100FF00000BE5048103029185348814200D23AE7C9
:101000000598A0810698050C86B22946304600F066
:1010100081F8E0812946304600F084F82082207E65
:10102000C10700D000BE40082076607EC10700D016
:1010300000BE40086076A18A002905D007E00020A4
:10104000C046C0462D1DD4E77D21C900A1820428D9
:1010500000D000BE002009E7F8B5354C0025403C23
:10106000334F24E0EE00A059384988421AD1301994
:1010700000904068800A400414D001F07FFD0928E8
:1010800010D900980322406812020146090410405A
:10109000890E0843A159086000982D494068C00195
:1010A000C00D02E030194068A15908606D1C387EFF
:1010B000A842D7DCF8BDF8B51D4C0025403C2746BA
:1010C000403717E0E80006192248316981420DD106
:1010D00001F054FD092809D91F49706908401C49CD
:1010E0000988490408433169086002E03069716980
:1010F00001606D1C787EA842E4DCF8BD0C48808954
:1011000070470B48408A70470948C08A70470848B2
:10111000808A7047081A0104890C40180F4940184A
:1011200000B27047C2008018401A0004C014704713
:101130004C8CFC07C07EF807A5A5A5A54C42005025
:1011400028000050A000FC07C07FF8074C100040AA
:101150005460FC0738300040FFFF01FC0100FFFF36
:1011600010B5062201495DF7C7FF10BDD47FF8070F
:1011700005200007018830221143018001880322E5
:1011800011430180704705200007018830229143F8
:1011900001800188890889000180704736490A8BDF
:1011A00003231B029A43000202430A837047334918
:1011B0008A8A03235B029A43C3085B021A438A822A
:1011C0008A8A0723DB0240079A43800C02438A8203
:1011D0002A484030018801221143018027482038E5
:1011E00041894907FCD570472448818A808A49058E
:1011F000890F8004400FC900081870471F498A8A68
:1012000003235B029A43C3085B021A438A828A8AD9
:101210000723DB0240079A43800C02438A8270470F
:1012200010B50446154820384089C00502D4012075
:10123000C04310BD00F053FE002806D0FFF7D4FFD6
:10124000A04202D90020C04310BD0C48408AC0040F
:1012500008D40B480088000704D4082C02D20420CC
:10126000C04310BD07480121047041702046FFF7BC
:101270009EFF002010BD00002030005040000050B4
:10128000200300505860FC07F0B585B00026884C5C
:10129000029602983021484300960019009989006F
:1012A00046500099491C00910C29F7DB0298401C1C
:1012B00002900128EDDB02F0A1F97D4D0021083DEF
:1012C0002960696001270296002000900299794800
:1012D0004900465A00993846884080B206421DD0DF
:1012E0000298302148430099001989004058411C58
:1012F0001BD000280DD0C117009A5DF741FF029A5C
:1013000012015DF73DFF2A686B681043194328609E
:1013100069600098401C00900C28DBDB0298401CA0
:1013200002900128D0DB05B0F0BD00BEE3E7F8B5C0
:10133000164605460C460A461F46012000215DF769
:101340001FFF2A015DF71CFF594B083B1A685B68B9
:1013500010401940084300D100BE680156494018AA
:10136000610008183E43C680F8BD70B505460C46BE
:101370000A46012000215DF703FF2A015DF700FF07
:101380004B4A083A1368526818401140084300D18C
:1013900000BE6801484940180121A140818070BD0C
:1013A00070B505460C460A46012000215DF7E8FEAF
:1013B0002A015DF7E5FE3E4A083A13685268184074
:1013C0001140084300D100BE68013B49401801218B
:1013D000A140418070BDFFB581B00C4605460A466C
:1013E0001F46012000210A9E5DF7CAFE2A015DF713
:1013F000C7FE2F4B083B1A685B6810401940084332
:1014000000D100BE002E2146284602D0FFF7C8FFBB
:1014100001E0FFF7AAFF3B4621462846039AFFF763
:1014200086FF80E770B5012421460A3881400D46C9
:1014300088B200F02CF884402048C189A9430C43AD
:10144000C48170BD10B504460A3804280BD8204664
:10145000FFF7E8FF1649A000303140188038806D52
:10146000002801D0804710BD002CFCDBE106C90E2E
:10147000012088401249086010BD0A20E2E70B20D5
:10148000E0E70C20DEE70D20DCE70E20DAE700289D
:101490000BD0411E4840C003010C002002E0490867
:1014A000401C80B20029FAD170471020704700001C
:1014B000708CFC07D45BFC07003000500014005017
:1014C00080E200E08307FF22DB0E9A408907090EC5
:1014D0009940002808DB830845489B001B181868C2
:1014E00090430843186070470007000F08388308CE
:1014F00040489B001B18D86990430843D861704747
:1015000010B5FFF740FE0522120790883A49000502
:1015100004D53A4B1C880520A04311D09088C306FF
:1015200037481FD58388DB071CD003881B0619D5D5
:1015300001228280028880239A430280486822E048
:10154000188804221043188018884008400018802A
:101550000C68002C05D00220185E995E0A229A5E63
:10156000A04710BD9288D206FBD582889207F8D595
:101570000288D205F5D5022282800288FF2301333A
:101580009A43028088680028EBD0804710BD70B570
:1015900005242407A58810263543A580002A00D1FC
:1015A00000BE0425164CA58025889B06AD09AD011B
:1015B0009B0E1D432580A181521ED1B261802188DE
:1015C000802211432180208102211020FFF77AFF21
:1015D000102000F004F870BD0749486070470028EB
:1015E00005DBC106C90E0120884006490860704726
:1015F00000E400E000ED00E0B48CFC0700020050C5
:101600000001005000E100E07D4801880122120342
:101610009143018070477A480188012212031143E7
:101620000180642000BF401EFCD170477449CA8805
:10163000D208D2000243CA8070477149CA88702319
:101640009A4300010243CA807047F8B5050049D0AB
:101650006B4C2978208840229043890108432080E0
:101660006878FFF7EAFF2878002803D16878000936
:10167000FFF7DCFFE87804260128208833D0B04348
:1016800020802879A1880002C9B20143A180E088A6
:1016900001274006400F7F02042826D0FFF7B4FF41
:1016A000A8780F2800D900BE61880F22520291430A
:1016B000400201436180687961888908890001439B
:1016C0006180A879012820883BD0B8432080E87940
:1016D000072800D900BE6188FF22C13291438001F2
:1016E00001436180F8BD3043CAE7FFF70AFD454971
:1016F0000028088001D144480880FFF78CFF20882B
:101700003843208021884020814301432180608824
:10171000304360806088C004C00C608060880F2106
:1017200049028843084360806088FF21C1318843B3
:10173000FF218131084360806088800880006080DC
:10174000F8BD3843C2E72E480188012211430180C9
:10175000704770B505462A4C0020208021200001EA
:1017600060804020A080FFF7C9FCA081A189702083
:1017700081434031A181062000F035F82846FFF76B
:1017800064FFFFF7E0FF70BD1D480188022211438E
:10179000018070471A490120C8811C480068002850
:1017A00000D00047704710B5FFF7EEFF14480188DE
:1017B0008907C90FFBD10121C181008A114A14494F
:1017C0001288801A7D22D2005043002801DD4A1081
:1017D00002E0002801DA0F4A80185DF729FC801129
:1017E000193040B210BD002809DBC106C90E012026
:1017F000884009490860BFF34F8FBFF36F8F704770
:10180000001500505A60FC0740760000C08CFC07B1
:10181000AA0500002BFDFFFF80E100E0F8B51D48A0
:101820001B4D0068A84231D0FF26C1360121304649
:101830005AF7D2FF04461848016818480A0A01708E
:1018400042700A0C8270090EC1700022A35CFF2155
:10185000C0319F07891ABF0F615CC75D794059404D
:10186000A154521CB242F1D30C481C222146001D47
:101870005FF7D6FB002800D000BE20465BF727F8B4
:101880000648406841F741F802480560F8BD00008D
:10189000658734129CB8FC074860FC075C60FC0755
:1018A00010B57D221202744C904201D17F2005E0D8
:1018B000410010465DF7A6FB401EC0B22189C90950
:1018C000C9010143218110BDEFF31080012181F393
:1018D0001088052109078A8801239B021A438A8000
:1018E000002800D0012080F31088704762498A8860
:1018F0009208920002438A80704730B501245E4905
:101900007C235E4A002803D0012807D002280BD090
:101910008D889D431C358D8014740AE08C889C430F
:101920003C348C80022103E08C881C438C80042191
:1019300011741178E12300071940C00E01431170A2
:1019400030BD70B50446FFF7BFFF4B4D2020288007
:1019500020794007400FFFF7D0FF20780007400FA5
:10196000FFF7C4FF2078C107A88880229043090EA2
:101970000843A880414923780878DB0740084000E5
:10198000DB0F184308700023AB812B8913432B8195
:101990002278D20712D12279C0069206520FC00EC9
:1019A0005201104308706088FFF77AFFE079C107A1
:1019B000288840229043490E084328802888202107
:1019C00088432880002070BD2B490888202290433E
:1019D00008802A48284900784009203188807047CB
:1019E00025490020203188802349088820229043FF
:1019F00010430880704770B51F4900230A885209B8
:101A000052010A800A880224A24322430A800A88DB
:101A10000424A24322430A800C88012294431443E5
:101A20000C80164A1278D506134A2C0F2032022C4D
:101A300001D3060C16811080088B000BC007C00F65
:101A4000FAD1012C01D910890304280F888B04D006
:101A5000C0180A8BD20BFCD170BDC0B2F9E700B53B
:101A60000346FFF7B1FF1846FFF7C5FF0346FFF730
:101A7000B7FF184600BD000000120050C48CFC07E0
:101A800010B50120FFF739FF05200002FFF7E7FF3F
:101A900080B210BD10B5FFF7F3FFC00701D00D20D5
:101AA000C04310BD0DC807490DC1704710B5FFF701
:101AB000F1FF002805D1FFF720FFB920FFF7CFFF86
:101AC000002010BD7060FC078307FF22DB0E9A40E8
:101AD0008907090E9940002808DB8308DB489B0032
:101AE0001B18186890430843186070470007000FE0
:101AF00008388308D6489B001B18D86990430843D0
:101B0000D8617047D34930B4884201D0012100E048
:101B10000021D14A4901891808E0838ADB07DB0FDD
:101B200012D00388541C8D68CC81AB54CA898B8930
:101B30009A42F2D382885208520082808A69002A2F
:101B400002D0C88930BC104730BC704710B5C348BC
:101B500000F0FBF810BDEFF31081012282F3108832
:101B6000BC4B052212079842908801D1802300E0E7
:101B7000402318439080002903D0012080F310886F
:101B800070470020FAE710B502464032938FDB071A
:101B9000DB0FFBD183898022934313438381CCB233
:101BA000C0231C520B041B0E03800902090E818006
:101BB00081899143818110BDA64A904201D00120C4
:101BC00000E00020A44A4001801841617047F0B550
:101BD000A04F0D460446B84201D0012000E000208D
:101BE0009D49400146182046FFF7B5FF7C20005B69
:101BF00028680102090A2046FFF7C5FFE978C806F0
:101C00008A06800FD20FC000920049071043490F87
:101C10000843A081E878C109204680300183E97833
:101C2000CA091AD0BC4210D14906CA0F218A202302
:101C30009943520111432182E9784906CA0F218A4A
:101C40000223994352001143218229790907890F00
:101C5000818329798907890F0184287A3077E86898
:101C60003061286970616869B06128790007800F68
:101C70007077F0BD828A5209D207D20FFAD0018064
:101C8000704730B513460C46054606E021782846D5
:101C9000641CFFF7EFFF5B1E9BB2002BF6D130BD3B
:101CA00070B56C4D0446A84201D0012000E0002030
:101CB000694E400186190020F080B280002B06D0CA
:101CC000012B07D13160AC4205D1022004E020464F
:101CD000FFF7D7FF70BD032000F029F8A08802218C
:101CE00088430843A080A088802188430843A080BF
:101CF000317FAC4201D1022000E00320FFF7E4FE77
:101D0000AC4201D1022000E0032000F007F870BDD2
:101D1000818A8909C907C90FFAD07047002805DBF5
:101D2000C106C90E012088404D490860704700284F
:101D30000ADBC106C90E012088404949803108608C
:101D4000BFF34F8FBFF36F8F7047F8B5414D424ED1
:101D5000044620890007000F062826D009DC012848
:101D600040D002281DD00428F3D12046FFF7CAFE38
:101D7000EFE7072828D00C28EBD1AC4201D0012096
:101D800000E00020400187192046FFF7BBFEA18834
:101D900049084900A180B9690029DAD0F889884743
:101DA000D7E7204600F01FF8D3E72046AC4201D029
:101DB000012100E00021490189190A69002AC8D0DF
:101DC000818A9E2319400BE02046AC4201D00121BC
:101DD00000E00021490189190A69002AB9D00121CE
:101DE0009047B6E7F8BD1B4930B4884201D00121C5
:101DF00000E00021184A490189180EE003891B06FA
:101E00009B0F032B1BD0838A9B06DB0F002B1BD061
:101E1000531C0C68CB80A25C0280CA888B889A42D3
:101E2000ECD3828802239A438280828880239A435B
:101E300082804A69002A07D0888830BC10477C23FA
:101E40001B5A9B07DB0FE1E77EE6000000E400E0A1
:101E500000ED00E000100050D88CFC07001100508D
:101E600000E100E010B50446FFF7BEF9A04202D23F
:101E70002046FFF7C3F958480188C90708D10188EF
:101E80000122114301805448603841894907FCD53B
:101E900010BD38B5514C054620684107490F6846CA
:101EA00001700078854219D04B4860384089C005E0
:101EB0000CD5A81E03005DF773F90504060404049D
:101EC00009000B2000E01320FFF7CCFF2068C008BA
:101ED000C0002843206060684007FCD538BD4048FA
:101EE000007870473E4900200870704705210907B7
:101EF0000988090600D400BE80003A4909583748CD
:101F0000016139494161704710B5EFF31084012038
:101F100080F31088304860384089C0050BD53049BF
:101F200001200870FFF760F9304908702A480088DE
:101F3000C007C00F487005200007018880221143A8
:101F4000018026480168C908C90001604168490745
:101F5000FCD50320FFF7CAFF002C03D0012080F33B
:101F6000108810BD0020FAE770B5EFF3108401204F
:101F700080F3108805210907088880221043088013
:101F800016480368DB08DB00036043685B07FCD589
:101F9000174B0361144B43610888904308800E4837
:101FA00060384089C0050ED50D4900200F4D0870DE
:101FB0002878FFF723F96878002804D106480188BB
:101FC000490849000180002C03D0012080F31088CB
:101FD00070BD0020FAE70000800000500000F40708
:101FE000188DFC07D85BFC07090404A45860FC07A3
:101FF0000F00990910B50A4880890A49C96A002961
:1020000001D0884710BD042000F001F810BD002861
:1020100005DBC106C90E01208840034908607047EE
:10202000201300507C60FC0780E200E0F8B5012539
:10203000AD07AC6B2046FEF77DFC6949694F4A68E5
:10204000861800204860394630465CF7DBFF664959
:1020500048603A465043301A00D0381A80B20860BF
:10206000286B08218843084328636048046060485F
:102070000068002802D0A04200D200BEF8BD10B512
:10208000FFF781F8052000074189890703D04189BE
:102090008908890041810189802211430181018AD7
:1020A000042291430182818A8907FCD500F0B4F8AB
:1020B000012080070169490700D500BE0169490771
:1020C000FCD510BD10B5FFF753F84A480189490700
:1020D000FCD4FFF758F848480521008809074880D4
:1020E0004648474C0088801E608007202080FFF70C
:1020F0003FF820884007FCD4FFF7C1FF10BDF8B5BA
:1021000040480168C90703D00168022211430160F9
:102110000168490204D5016801229205114301605A
:1021200001272F4EBD072C69002C57D0200606D55D
:102130008020A8614BF7ABFB1E20FEF78DFBA007AC
:1021400003D50220A86147F7A0FA20070AD5082086
:10215000A86103F048F8002047F750FA04203070D7
:1021600000F003FDE00505D5FF200130A861012046
:1021700047F744FAA00504D501204002A8614BF7B7
:10218000EFFB600603D54020A86147F732FAE0066E
:1021900003D51020A86145F7EFFD60070FD5042097
:1021A000A861144801894908490001815BF78CF94D
:1021B00040F746FA1E20FEF74FFB00203070E00784
:1021C00006D00120A8615BF79BF94BF760FB3770E5
:1021D000A006A8D52020A86100BEA4E7F8BD000095
:1021E0001C8DFC0771020000400000402C8DFC0794
:1021F000248DFC0700330050DC8BFC07E08BFC07D0
:10220000001600500002004010B540F75EF8674825
:1022100080686749486010BD10B540F782F864488F
:1022200062494068886010BDF8B5002500F0B9F833
:1022300000270090FEF7C6FA01465E4E00200029F6
:1022400002D13179022900D100905B490989C9077F
:102250000DD15AF79EF9002809D0F0780125002801
:1022600005D005200007808AC00701D0042596E02C
:10227000308800287DD1FEF7A5FA002806D14F4806
:10228000806A002802D000F08CF80090FEF75EFB18
:10229000B17868465AF775FF00286AD00124A40770
:1022A000206940067BD44348817868464BF746FC5A
:1022B000002874D00120FEF771FF0099002906D094
:1022C000206AFF383938DA2801D8491E00913C4885
:1022D00002883C48016850183B4A1060E26B920A41
:1022E00092020A43E263E16B384A1140384A1668A9
:1022F000B2021143E163E16BC902C90A400501431F
:10230000E163344A009804250021904200D300BEC6
:10231000314B0CCB5CF7A0FE0903000D0843244AA7
:10232000401E711C1060884200D11660214800795F
:10233000002801D0012100E00021106847F714FBBC
:102340002648C06A8047FEF765FB002802D0FEF7EA
:102350000FFF0127154E206B0004C00FFBD0306823
:10236000C005FCD530688024A0433060002F03D026
:1023700000E014E0FEF707FF0F494889462804D221
:102380004622174B101A18604A81FFF73DFF30684C
:102390000006FCD5052000070189A14301812846DC
:1023A000F8BD10480068806A7047000000020040D5
:1023B000248DFC0754BAFC070033005074BEFC07A0
:1023C000E08BFC075060FC07AC60FC07FF03E0FFFC
:1023D0004C60FC0740420F00008CFC0758BFFC0714
:1023E000208DFC0758B9FC070020704770477047E4
:1023F00010B5282801D2282002E0E62800D9E620DE
:10240000FF21F33148437D21C9005CF7FBFD81309A
:10241000C0B210BD7047704710B5022902D0012923
:1024200000D000BE002802D0FF2802D000BE022942
:1024300002D000F0A3FB10BD0C2010BD01218907C4
:10244000086B0722104308638C480168021391430C
:102450000160704710B50220FEF7A0FE87480168B2
:10246000020391430160864800214163416B1F22B2
:102470001204914342138918416301060868F0224F
:102480009043E030086010BD10B58AB07D494162CC
:102490007D4981627D494161002430210C547C4991
:1024A000C1627C4901607C4901627C4941607C4990
:1024B000C16100F046FB7248416B1F221204914338
:1024C0004213891841636D480168C212914301604B
:1024D00068460455641CE4B2282CFAD301467148BE
:1024E0002822006840305CF707FE092000F043FB1B
:1024F00000F047FB002802D0012000F03CFB00F078
:1025000021FBFEF7A9FDFEF7D6FD00F0D5F800F09F
:1025100058F8FFF79FFF00F013FB00F083F800F07E
:1025200024FB0AB010BD10B55548416B1F221204A0
:10253000914342138918416300060168C908C90024
:10254000016005200007018908221143018100F084
:1025500018FB002802D0012000F00DFB00F0F2FA79
:10256000FEF77AFDFEF7A7FD00F0A6F800F029F8C7
:10257000FFF770FF00F035F800F0F7FA10BD10B566
:1025800004467022484949485CF7B6FD4748483040
:10259000011B46481038018344495C31091B4183C3
:1025A00010BD10B500F0CEFAFEF785FD00F084F8FE
:1025B00000F007F800F0C4FA00F023F800F0D5FAB4
:1025C00010BD2F4B10B540331868394C0102090E6D
:1025D000C2B20A3109040A32204011430143196092
:1025E00010BD344A118B3148103083691B0C1B0419
:1025F0000B438361518BC269120C12040A43C261FE
:1026000070472C4A203A118B28481030C3681B0CA5
:102610001B040B43C360518B0269120C12040A4362
:102620000261704710B5FFF7ECFFFFF7DAFF2148B2
:102630002038018A1D4810308268120C12040A43A7
:1026400082601C4A40329188036A1B0C1B040B43B6
:102650000362D188426A120C12040A43426215498D
:102660004A88836A1B0C1B04134383628988C26AED
:10267000120C12040A43C26210BD000000020040A6
:1026800040000040E923FC07ED23FC071924FC0768
:102690003D24FC07EF23FC071524FC071724FC0747
:1026A000F123FC074CB9FC07F45BFC0770A0FC07A6
:1026B00000FF00FF20300040F0B5FE48406B7F2156
:1026C000090288430B2109024018FA494863086A45
:1026D000F94980B24018F7490862886BF74901222E
:1026E00008405203F34980188863F248403001697A
:1026F00003231B0219430161818B10242143818331
:10270000EC4820308188012421438180ED49EC4848
:102710000860ED4C20883F21090188432F210901E1
:1027200040182080E84820388169E84D490D490566
:1027300049198161C169E64D294009256D02491990
:10274000C1614168E34D2940E34D49194160816809
:10275000E24D2940E24D49198160C168E14D2940AF
:10276000E14D4919C1600169E04D2940E04D491929
:102770000161E049C514097809064919C1256D01AF
:102780002943DD4D29600525DC49AD020D816D1D14
:102790008D81DA4920310D892D0A2D0255350D81A3
:1027A0008D25AD000D82D64D8D82D64D0D83D44D35
:1027B0000E3D8D83D349D14DC91D40352980D24965
:1027C000A181C16BD14C2140D14C0919C163FF20BB
:1027D000D04C6C302080CF482030068B1F2149011F
:1027E0000B258E43AD0176190683CA484030868892
:1027F00009278E43BF01F6198680068915278E4367
:102800007F01F619068186898E4371198181FF2027
:102810008D30A080BF4880300189E024A143194356
:102820000181818B4909490119318183B2482030E6
:10283000818B5B01994389188183AF48803001689F
:10284000C908C900C91C0160AB49B348403148629E
:10285000F0BDA94908B500208031C8620090401C35
:102860000090FF28FBDDAD480078AA49C006820D24
:102870004031C8681F235B0198431043C86008BDFE
:10288000A7488C490068403108608A4881698909F5
:1028900089011C3181618169C21391438161016B9E
:1028A0003F22120691430722920689180163016BA9
:1028B0003F22920191430F22D20189180163016BDB
:1028C000890989011E31016370477A48C169490845
:1028D0004900C161704788490320487170478D489D
:1028E00008B54030C1688D4A8905C90E1170C168AC
:1028F0001F2252019143C1607F49012088717E48A7
:102900008030C16A03221143C16200200090401C44
:102910000090FF28FBDD08BD08B5774902208871CB
:1029200000200090401C00900B28FBDB08BD614894
:1029300041210177C169032252029143021589188E
:10294000C16170475B494320087770475948403060
:102950000168734A11600021C943016055488169CB
:102960008909890181618169C21391438161C169CA
:102970000322520291430315C918C161C169702332
:1029800099434031C161016B3F231B0699430B23DF
:102990005B06C9180163016B3F239B0199438918AA
:1029A0000163016B89098901183101637047F8B52A
:1029B0005148032747713F4C6068C009C00114307B
:1029C0006060FFF7C3FF43202077FFF7A5FFFFF705
:1029D00086FF0025261500950098401C0090B04207
:1029E000FADB454903204871324880308068C705CA
:1029F000FF0DFFF72EFF00950098401C0090102857
:102A0000FADBA0694002400AF9050843A061A06909
:102A100044490840B9010843A061FFF788FFFFF768
:102A20007BFFFFF75CFF00950098401C0090B042D0
:102A3000FADB3149032048711E4880308068C705A1
:102A4000FF0DFFF706FF00950098401C009010282E
:102A5000FADBA0694002400AF9050843A061A069B9
:102A600030490840B9010843A061FFF760FFFFF754
:102A700053FFFFF734FF00950098401C0090B042D0
:102A8000FADB1D49032048710A4880308068C6057A
:102A9000A069F60D4002400AF1050843A061A06953
:102AA00020490840B1010843A061FFF70EFFFFF77E
:102AB000E7FE39E00030004000008888FF00FEFF9C
:102AC00059055C07800000402020004009581A008A
:102AD000FEE1FFFFE0E000000809294900000303D0
:102AE000696A686C031FFFFF70600000E0E0E0E0CF
:102AF0000B0A0A08308DFC0700100040201300402C
:102B0000340A000051080000070F00002F64E0FEA7
:102B1000101A06010012004050015001385FFC07F6
:102B2000B060FC073F80FFFFFFF793FE0095009821
:102B3000401C00901028FADB134846810120F8BDA4
:102B400035E7704708B5114808210171002100914F
:102B5000009A521C0092102AFADB0091491C009145
:102B60001029FBDB0321417108BD08480221817156
:102B7000002181807047064908707047044800783A
:102B80007047034840787047B460FC07001000406D
:102B9000308DFC077047704710B560F7A9FD012024
:102BA000FDF7C4FD10BD0C21414A10B54143891801
:102BB0008978FF2901D000F0D4F810BD704710B516
:102BC00060F77EFC10BD704710B53A490A78027074
:102BD000401C491C5CF790FA10BD3649498C0180B5
:102BE00070470821018010214180002181807D21D2
:102BF000C180704770B50C46017800252D4B002927
:102C000004D0012909D04820207070BD8278011DB0
:102C10001A70581C5CF770FA01E0408858842570DF
:102C200070BD01200870002048808880704770B512
:102C300004464079800911D13FF761FE01462070BA
:102C40000A0A62700A0CA270090EE170251D3FF796
:102C500056FE2870000AC0210843607170BD10B58F
:102C600000F059FB10BD1FB54978002908D0124A61
:102C7000012901D002290DD101230092042206E08E
:102C80000EA21ECA03946C460EC40123102269468C
:102C900000F060FB1FBD10B50446497800F02EFA25
:102CA000204600F096FB204600F087FB10BD000098
:102CB000568DFC07628DFC0740E201000001020313
:102CC0000405060708090A0B0C0D0E0F00217E4AA9
:102CD00005E0834201D101207047491CC9B20C2391
:102CE0004B43D35CFF2BF4D10020704770B5764A7C
:102CF000764C15460C350DE089184968002907D037
:102D0000C1B20C23594389184968401C607025E002
:102D1000401C607060780C214143535CFF2BEBD169
:102D20000AE049194968002903D0FFF7CFFF0028BE
:102D30000DD02078401C207021780C204143685C25
:102D4000FF28EED1002060702070012070BD207837
:102D50000C21414349194968401C207088470020D4
:102D600070BDF8B505460024574E0AE08019816809
:102D7000002904D0641CE4B22846884701E0641CA2
:102D8000E4B220460C214843315CFF29EED14E4E7F
:102D900000240C3609E08F19B968002903D0FFF729
:102DA00095FF002808D0641CE4B221460C20414362
:102DB000705CFF28EFD1F8BD641CB968E4B2284606
:102DC0008847F2E7FEB5414EB06800284DD12C236C
:102DD000042209213E4859F70DFE03210170052107
:102DE000B0604170172101840121817600250446DD
:102DF000458010210A305CF798F936A103C9324F9B
:102E0000019100902C3F06223449781D5CF798F917
:102E1000002807D005226946781D5CF791F9002843
:102E200008D008E029481830FFF701FF274906229B
:102E3000183103E000BE00BE0622791D201D5CF79C
:102E40005BF92020E076A583E58325486584C08F63
:102E50000021002800D90846E084214800214030A4
:102E60000088002800D908462085B068FEBD3EB520
:102E700000251549009501950C22283168460295D8
:102E80005CF73AF911480C221E3069465CF734F9B8
:102E90000E4C0B222A34227012A1601C5CF72CF914
:102EA000094965841831042059F7A3FF0021042043
:102EB00059F7D1FF3EBD10B5FFF784FF59F7B5FDB7
:102EC00002490020886010BDAC5CFC07388DFC070F
:102ED000040D0000FFFFFFFFFF000000DCF1F10721
:102EE000F0BBFC074449414C4F472D544D504C001A
:102EF00010B5104659F7C4FF002802D000BE0020CC
:102F000010BD012304220921774859F773FD0121DF
:102F1000017059F78AFDF2E710B50C780F2C17D025
:102F20000CDC0C2C14D004DC012C13D0032C0DD1A0
:102F300016E00D2C0CD00E2C08D109E0112C17D066
:102F4000122C15D0132C03D0172C01D000F096FEB4
:102F5000002010BD4878002805D1FFF7ACFFF7E747
:102F60004878002801D000BEF2E700F0F2FDEFE75C
:102F7000487800F0D7FDEBE7F8B51C4610460E4642
:102F800059F77EFF022802D000BE0020F8BD240AB7
:102F900000D000BE0C202746474354483D18AC7073
:102FA000FF2C1AD00121E9700321042059F753FFA7
:102FB0004E483188C153707A28713146681D062207
:102FC0000A315CF799F87A2049496043401860302B
:102FD000017E0122204660F787FA3146204600F044
:102FE00040FDD2E770B50D784C78092D04D0002C47
:102FF00000D000BE00F042FE002070BD70B51D463E
:1030000010460C4659F73CFF2A0A032802D000BE9E
:10301000002070BD0C2042433448FF2110188170FD
:103020000021C170204600F053FDF1E7F0B50878AB
:103030000025304C89B01F461646002804D00128D0
:1030400017D0022827D129E06846FFF7BDFD684662
:1030500003783246394620460A3359F7CBFC0446FA
:10306000057068460278411C6280201D5CF744F8B8
:103070002BE069460D806846FFF7AFFD0A23324614
:103080003946204659F7B6FC012101706946098886
:10309000418059F7CAFC002009B0F0BD0A23394627
:1030A000204659F7A7FC04466846FFF79AFD022020
:1030B000207068460088608068464088A080684626
:1030C0008088E0806846C08820812046E1E7FEB520
:1030D0001C46089B0E26084D6F4668C713462246BD
:1030E00060F706F9FEBD0000020D0000568DFC07DA
:1030F0009C8DFC070B0E0000E05CFC07F8B50E464B
:103100007A2148430B4D074644192046082226776A
:103110001430114600F06CFAA01C1022314600F069
:1031200067FA3FF7ECFB6082E85D01210843E85550
:10313000F8BD00009C8DFC0710B50A78180A130032
:103140005CF72EF80805191919131A1A16190C220A
:10315000434C424312190123D3727A22414C00237B
:103160004243A354FFF77BFD06E0FFF77CFD03E03D
:10317000FFF791FD00E000BE002010BDFFB5180A6A
:103180001E4681B01B0A00901C467A2044430C2541
:1031900034486B430A78324D201807465D19921E59
:1031A000603713005BF7FCFF0604123619222D3638
:1031B00089783976C90706D0691D062271305BF718
:1031C0009BFF2879F8750020E87228E00020E8725B
:1031D0003876009860F7D4F921E0224D17223A3072
:1031E000891C5BF789FF285D042107E01D4D102233
:1031F0006130891C5BF780FF285D1021084328554A
:103200000DE0184D1C221E30891C5BF775FF285DF0
:103210000221F3E73346039A019800F02FFD0020C6
:1032200005B0F0BD00207047180A7A2250430D4ABD
:1032300009788018603001760020704700207047C0
:103240000020704700207047FEB51C46089B0726EB
:10325000054D6F4668C71346224660F749F8FEBD24
:10326000568DFC079C8DFC07505DFC070520000770
:103270000089000608D501208007006B000403D4F4
:1032800003480078C00701D0002070470120704734
:1032900054BAFC0770B51049049C4118052901D3A4
:1032A000012070BD00F00FF80025002807DB0B4A55
:1032B00081005058002803D05550804700E000BEE0
:1032C0002570002070BD04494018052801D240B285
:1032D00070470020C0437047F2FBFFFF1C8EFC07C5
:1032E000F8B5494D84002959002912D101021E2345
:1032F000042246480A3159F77DFB0126067007462D
:10330000285107224249801C5BF7F6FE00203871E5
:103310007E702859F8BD10B50446FFF7E1FF59F754
:1033200084FB0020384AA100505010BD70B5364DC6
:1033300084002D1D2959002901D0084670BD0102C5
:103340001E23042231480A3159F754FB042101702D
:10335000285170BDFFB581B01F460446FFF7E6FF58
:10336000294D0646A4002D1D28591021801C5BF70D
:10337000DCFE2859039A801C02995BF7BDFE77702A
:10338000304659F752FB0020285105B0F0BD70B50A
:103390001D4D84000C352959002901D0084670BD07
:1033A00001021E23042219480A3159F723FB072181
:1033B000017001214170285170BD10B50446FFF71E
:1033C000E6FF59F732FB104A0020A1000C325050A2
:1033D00010BD70B50546FFF7DAFF04467A20454375
:1033E0000C4808222D18287F2077688A6082294699
:1033F0002046143114305BF77FFEA91C1022A01C5C
:103400005BF77AFE70BD0000308EFC07140E0000E2
:10341000485EFC079C8DFC077047704770B50D46F1
:103420000446FFF723FF002806D06B482A460421F4
:10343000201859F71EFE70BDFDF7C7F96648042233
:1034400008231146801E59F7D5FA4560047059F7D4
:10345000ECFA70BDF8B5614C069D06190024002EEB
:1034600026D0012E0CD05F4F5D4B3A46283A022EF3
:103470000AD05A49C91E41180A2927D30120F8BD8C
:1034800000F080F8287039E00878461E092E0DD823
:103490008000001F105898422FD1B0003B581350A5
:1034A0004A6808781146FFF7B9FF26E000BE24E01D
:1034B0004A68002A02D04C48824200D900BE0878EF
:1034C00045494018042159F7D4FD16E04349891EA7
:1034D0004018C0B2411E0929E8D88600B218803AC7
:1034E000D16F002909D0994207D0404B994204D0AE
:1034F000D467F219803AD46788472C700020F8BD51
:103500000A46010010B5384801D0814200D900BEFA
:103510000020344B283B84001C59002C04D0401C54
:103520000A28F8DB002010BD84001A51401C040654
:10353000240EF7D02046FFF771FF204610BD70B56E
:103540000446401E09281BD82648A10028380D181B
:10355000803DE86F002813D0244EB04210D01E48A2
:103560000421201859F7CFFD1B48042208231146D7
:10357000401EEE6759F73EFA047059F756FA70BDCF
:1035800000BE70BD10B508780C46411E09291FD831
:1035900082001448121F28388258144B9A4205D1D1
:1035A0000022890042502830425012E089004058E1
:1035B0000B4988420DD1042208231146064859F7C9
:1035C00019FA217801706168416059F72EFA00E01C
:1035D00000BE002010BD000003040000FFFBFFFF41
:1035E0001B34FC07708EFC07FCFF3F001934FC07FE
:1035F00010B58A4201D35FF7B3FE10BD70B55B48CA
:1036000000228169D243002901D0114600E0012146
:10361000CB178C0E9B0123438C01816154490D68AB
:103620004E682C4333430C604B60036A002B01D07F
:10363000144600E00124E317250E1B022B4304620D
:103640000D6824024E682C4333430C604B60436882
:10365000002B01D0144600E001244460E317241934
:103660000D685B414E682C4333430C604B6003692B
:10367000002B01D0144600E00124E317250F1B01A5
:103680002B4304610D6824014E682C4333430C60C6
:103690004B600368002B01D0134600E00123036058
:1036A0000D68DC174E682B4334430B604C60C368D5
:1036B000002B00D10122C260D017530FC000184365
:1036C0000C68D2004B68224318430A60486070BD02
:1036D00038B5002403252D0204232A46062120465E
:1036E0000094FDF778FE0023FF22013208211846DE
:1036F0000094FDF770FE0120014600901D232A462C
:103700000020FDF768FE1C232A46042100200094B7
:10371000FDF761FE00211B232A4608460094FDF7B1
:103720005AFE00221A23032110460094FDF753FE8F
:1037300038BD70B51B20FDF773FD0E4C01252580AB
:1037400001F08EFD0C48FEF7ADF90B482038FEF76E
:10375000F8F8094909481839FEF739FAFFF7B8FFB0
:10376000A089A8432843A08170BD0000708CFC078D
:10377000688CFC0700030050705EFC0700110050CD
:10378000F8B514461E46002801D0112700E0122784
:103790008C4203D80A2901D3322901D90120F8BD6E
:1037A00008467D21C900484349495BF72BFC054683
:1037B0007D212046C900484345495BF723FC044668
:1037C0000C2304220921434859F714F907700021FA
:1037D000417041808580C4800222027241728672EB
:1037E00059F723F90020F8BD10B503461A780120D7
:1037F000521CD2B28A4205D2401C9C5C521CC0B200
:10380000A218F6E710BDF0B500231C460FE0CD5C12
:10381000E6006D1E9555CD186F78B6187770AD1C03
:103820007560CD5C5B1CEB18641CDBB2E4B28342B8
:10383000EDD3F0BDF8B5074626480E461D230422F9
:103840000921801C59F7D6F804460321072058F7B0
:10385000C3FF0546062239465BF74EFCAE711420C5
:10386000207000216170FF2061808130A080FF20E6
:103870006130E080282222816281FF20A181F53021
:10388000E0812182052060820120207520460722E8
:10389000294615305BF730FC204659F7C6F8284614
:1038A00059F715F8F8BD10B500F005F810BD10B5C2
:1038B00000F001F810BD074810B5012304220921CA
:1038C0000C3859F797F80221017059F7AEF810BD7E
:1038D000710200000F0D0000F8B5064600780028C0
:1038E00003D000251024F84F10E07288F7A1F648A5
:1038F00001F006FD14E00C2C05D00A2C03D0082C96
:1039000001D0062C02D12D2078556D1C301942783B
:103910007819F0A101F0F4FC4519641E002CEADCD2
:10392000E948F8BD70B5E84D00242F353E206043CE
:10393000285C0C2100F0DAFBE8A001F0D1FC641C4B
:103940002406240EF2D000F0EBFA70BDF0B58BB077
:1039500004460027811C062206A805975BF7CCFBCE
:1039600020460930217A0546FFF73EFF0646C00093
:1039700001F06CFF0090207A2946009AFFF743FF80
:1039800000252FE0E8000099019040180990407848
:10399000092825D101980127085C401C01F056FF39
:1039A0000A900998019A41680098825C0A980292EC
:1039B00001905BF7A1FB029A019800218154CBA0F2
:1039C0000A9901F08DFC09980A224168CDA05BF7A5
:1039D000B7FB002843D0002005900A9801F00CFFA7
:1039E0006D1CEDB2B542CDD3002F1ED02820005D56
:1039F000FF210131081AC1B2C5A001F071FCB24F1C
:103A0000A61C0025133F0520401B325C68002818C7
:103A1000C019C2A101F074FC6D1C062DF3D3002067
:103A200078743946BFA001F05BFC0598002811D0DE
:103A3000C9A001F055FCA44801214F30817706222E
:103A400006A91F305BF758FB9F4861786F304171C2
:103A5000FFF729FF009801F0CFFE0BB0F0BD012069
:103A6000BAE7F3B5044681B001210F2000F0E6FC6F
:103A7000954D6F35E879002801D0FFF760FD2046AD
:103A80000299FFF790F8BB49BBA001F029FC3E204A
:103A9000264646438C4802992F303718B81C062218
:103AA0000A315BF729FB88482F3084550120787054
:103AB000A879401C0006000EA87101D100F03BFA65
:103AC0000020203738770121204600F0BBFAFEBDE8
:103AD00070B50546FFF772F828883E2250437A4AAF
:103AE00000212F328018144641704034E0790028BC
:103AF00001D0FFF724FDA079012801D100F01BFAC5
:103B0000A0799C49401EA071AA7813319CA001F0B5
:103B1000E7FB70BD6C4810B500216F30C171FFF735
:103B2000C6FE10BD10B5442806D092490246263183
:103B300098A001F0D5FB10BD634C6F346179601E15
:103B4000FFF778FEFF209949F530FFF7D9FCE071C7
:103B500010BD10B5FFF733F800F0EDF9FDF7A6FF43
:103B600010BDF3B585B00546069800F0A3FA032111
:103B700058F732FE044606987E49808A00900698DF
:103B80002A46438A41318AA001F0AAFB2A462146EF
:103B9000069800F0C0FA00200490904968468180A1
:103BA0008F49018161888FA001F09AFB207800285D
:103BB0000DD10222A11C01A800F0A9F9049000284F
:103BC00005D08BA001F08CFB8EA001F089FB204674
:103BD000FFF782FE01468DA001F082FB3A483E21AC
:103BE00000262F304D43281803903BE018207043E7
:103BF000051904981435002813D00222A91C02A824
:103C000000F085F900280CD00398182229460A30C4
:103C10005BF772FA03980121203081707DA001F0DA
:103C20005FFB54492848AF7D0922093925305BF7ED
:103C300063FA254800212D23253001228A403A428B
:103C400000D14354491C0829F7DB07462846FFF7F3
:103C500043FE00970246AB7DA98A73A001F040FBAA
:103C6000761CB6B2608AB042C0D8204658F72FFE04
:103C70000698818A0398018107B0F0BDF8B50C461B
:103C8000074601461D4670A001F02AFB280A0E4D8A
:103C9000714A3E2343432F35B91A5D1906469742B0
:103CA0000CD00CDC6D48381A0AD0092809D12188BB
:103CB000288F814206D1A17969A00DE106E1DDE0FE
:103CC000E9E0E7E00FE10000F160FC073078253023
:103CD000347800002530327800000000427574749A
:103CE0006F6E20707265737365640A00446576694F
:103CF0006365204C6F63616C204E616D653A2025D1
:103D0000730D0A00444C472D50524F58520000008A
:103D1000525353493A202D25640D0A00253032783C
:103D20003A00000042445F414444523A2573200D5A
:103D30000A2D2D2D2D2D2D2D2D2D2D2D2D2D2D2DD6
:103D4000454E445F4144562D2D2D2D2D2D2D2D2DCD
:103D50002D2D0D0A00000000436F6E6E65637469BF
:103D60006E6720746F204465766963652E2E2E0D74
:103D70000A000000855EFC0725730D0A00000000A4
:103D800025733A20726561736F6E3A253032780D73
:103D90000A00000025733A204552523A20726561AC
:103DA000736F6E3A2025640D0A000000153BFC0776
:103DB00025733A20636F6E6E5F6964783D253034F9
:103DC000782073746172745F683D253034782065A3
:103DD0006E645F683D253034780D0A001A180000C3
:103DE0006E2A0000555549443A2025780A00000003
:103DF0004261747465727920536572766963653ABD
:103E00002000000048454C4C4F00000025733A202C
:103E10000D0A000054656D706572617475726520DD
:103E2000436861720D0A0000092530347820636808
:103E300061722025732070726F703D2530327820BA
:103E4000282573290D0A00004D455353414745204D
:103E500049443A2025640A000C0C0000000C0000C4
:103E600042617474657279204C6576656C20526588
:103E700061643A202564200D0A0000000E292ED02E
:103E8000F42907D12078022804D132A001F028FAC1
:103E900000F051F8F8BD2078082814D00C2810D074
:103EA0001628F7D1617831A001F01AFA607800285D
:103EB00004D02989304600F0C5F8F8BD00F030F88C
:103EC000F8BD38A01DE061783EA005E0A088298FEC
:103ED0008842F5D1A17942A001F002FAF8BD21464D
:103EE000FFF73FFEF8BD48290ED045A001F0F8F9D4
:103EF0000025A1794AA001F0F3F96D1C322DF8DB01
:103F000048A001F0EDF9F8BDA17947A0E4E710B5AC
:103F10005BF716F9002801D0002010BD012010BD6C
:103F200010B54748FDF758FB012210023F23014618
:103F3000FDF72DFB10BD10B50221042058F78BFFB3
:103F40003222002311460120FFF71AFC002800D07E
:103F500000BE10BD436F6E6E656374696F6E205452
:103F6000696D656F75740D0A00000000436F6D7018
:103F70006C6574696F6E204576656E743A204741B2
:103F80005454435F444953435F414C4C5F53564341
:103F90003A207374617475733A20253034580D0AD1
:103FA00000000000436F6D706C6574696F6E204592
:103FB00076656E743A2047415454435F57524954D2
:103FC000450D0A0047415454435F524541443A204D
:103FD0007374617475733A20253034780D0A0000CB
:103FE00042617474657279204C6576656C20436813
:103FF000616E6765643A202564200D0A00000000A8
:1040000047415454435F524541445F494E443A202E
:1040100068616E646C653A20253034780D0A0000C2
:10402000256400000A000000436F756E74657220FD
:1040300076616C756520726561643A2025640A00BA
:104040002539FC0710B50C000FD0010230230422E3
:104050008148083158F7CEFC1621017000214180BB
:104060008480FF21C18058F7E0FC10BDFFB581B00E
:104070000A9D07462846183083B27748164609023B
:1040800004220F38083158F7B5FC044607700120A8
:10409000607000216180E18025816181A6802046D9
:1040A0002A460C3004995BF727F8204658F7BDFCE8
:1040B00005B0F0BD10B502460020938A548A01462F
:1040C0001C1B0DE016234B439B189B7D002B05D03A
:1040D000032B03D0022B01D1401C80B2491C89B2B2
:1040E0008C42EFDC18214843143010BD10B50C464B
:1040F000010259480A2304221138083158F77AFC82
:1041000008210170012141700021C180018184805A
:1041100058F78BFC10BDF7B584B0002506464D82DC
:1041200000780C46022801D0012000E00020207019
:104130003278002807D0711CA01C5AF7DDFF01203F
:104140002070002780E0711CA01C5AF7D5FF257055
:10415000F7E7162179438D19AA7D1635002A71D00B
:10416000791C401880B20190012A6BD0022A51D0EC
:10417000032A02D0042A65D118E0384818210078B3
:104180006A7848430019A91C16305AF7B5FF33481E
:104190001822007801995043001901856978022995
:1041A00001D0012100E0002101754BE02C48694657
:1041B00008810222A91C02A85AF7C2FF002841D197
:1041C000687802283ED1254D1821287848430019E7
:1041D0002030807AC0060AD50120694688810220F5
:1041E000009003AB0C20019A0699FFF73FFF287857
:1041F0001821484300192030807A800622D50220F9
:1042000069468881009003AB0C20019A0699FFF75C
:104210002DFF17E0608A114AC1B21170401C608204
:104220001820414308196A78A91C16305AF764FF10
:104230000A48182200786978504300192A2211543C
:104240006988C1847F1CFFB2B18A708A091AB94299
:1042500000DD7EE707B0F0BD190C00006861FC07C7
:1042600002290000FFB581B002980724C008000FA2
:104270000007009003988008460F049876074008CE
:10428000850FAD07FA4800F0C2F981068A0DF94999
:104290008009521800070199000A01430098014360
:1042A00031430320294380060143EFF3108372B6A4
:1042B000D068470104D4C00FC0070843D06000E0B5
:1042C0000020002B00D162B641012BD501218906C7
:1042D0004840029B490148405B0001405B080B439A
:1042E0001360039B5B005B080B435360049B5B0004
:1042F0005B080B43EFF31081936072B6D3685B01E8
:1043000003D5D060002903D003E0002908D00BE0DA
:1043100062B6D748001D00F07AF9012005B0F0BD63
:1043200062B601E0641EADD1D148083000F06FF9EB
:104330000020F3E730B5D049D04BD14C00224A7071
:1043400048689D69651B28184D78002DF7D130BD50
:10435000F8B5C74D2D1F2E461836AF69FFF7EAFF97
:104360000446B8420CD20121C34800F05BF9002892
:1043700006D128690021401C2861BF4800F052F98D
:10438000EFF3108172B630683460002900D162B654
:104390008742E2D12046F8BDB748416801221206A3
:1043A00089184160012141707047B3480021416084
:1043B000B248B34A4261816107210161012070471F
:1043C000B04800687047AA4810B5001F017800295E
:1043D00001D0012010BD01210170FFF7B9FF014696
:1043E00000231A46A848FFF73DFFF2E7F0B58C46D8
:1043F0008646FF2901D2FF2A01D30020F0BD002507
:104400002C460121A1407346194211D063460DE0AC
:10441000974ED8084019843E5907365C490F01274A
:104420008F403E43924F843F3E545B1C9342EFD9F2
:10443000641C2035042CE4D30120F0BDF3B58C4C72
:1044400081B0241F002580212570601A5AF76DFE67
:104450008E4B8F488F4E1822197809024840082148
:104460005B1C070403D54004000C704001E04004CD
:10447000000C491EF5D1521EEED1874A236A012154
:104480007D4E934201D0226202E06288824202D0D5
:104490006080E1613DE0E069401CE061012838D0C6
:1044A000744B00200101C918CA68570103D50327BE
:1044B000BF06BA43CA60401C4028F3D3FFF775FF1C
:1044C000071E01D0FFF77CFFA56125616061357093
:1044D000002F1CD0FE2200210198FFF787FFEF225A
:1044E00011460F20FFF782FFFE2211460420FFF73E
:1044F0007DFFFFF72DFF014663486369401EE269B7
:10450000FFF7B0FE0298002801D0FFF75CFF3846A5
:10451000FEBD65706560A560012189025548E560B2
:104520005AF703FECAE7FEB514460E00054601D051
:10453000802C01D90020FEBD00F08AF800280AD0A6
:10454000FFF706FF0090A8B2EFF30581002904D021
:104550000125ED0402E00120FEBD00250543002CED
:104560000FD0082C12D8002001900290224631462C
:1045700001A85AF7C1FD6007400B28430321090633
:104580003FE000231A46284600993DE000F054F829
:104590004007470B0822314601A85AF7ADFD2846CF
:1045A000012138430906084369460EC9083C08360C
:1045B000FFF758FE0028CFD035483D46FE3805436A
:1045C0000EE00822314601A85AF796FD6F460ECF3D
:1045D0002846083C0836FFF745FE6D1C0028BBD076
:1045E000082CEED80020019002902246314601A806
:1045F0005AF782FDFF200002854320022843012153
:10460000490608436F460ECFFFF72CFEFEBDEFF3C1
:10461000108172B60268531C0360002900D162B693
:1046200010467047EFF3108272B603780170002ACB
:1046300000D162B6184670470D49091FEFF310828A
:1046400072B64878431C4B70002A00D162B670479E
:104650000749091F0978002920D08103044A490E1F
:10466000843A515C4005400FC140C807C00F7047F5
:104670000466FC078061FC076C61FC0700E000E059
:10468000FFFFFF00345FFC0701FF0003D85EFC075B
:10469000FFFF0000211000006B27A5E10020E6E7E6
:1046A00070B50F4A0023DB43914204D10D4D0446FF
:1046B0002A68082A01D3184670BD0A48001D845490
:1046C000521C2A60082A01D00A2C06D10549064846
:1046D000091DFFF728FF00202860204670BD00005C
:1046E0003C5FFC077461FC0700FE0200F8B507465A
:1046F00001200023024600901946032044F782FE61
:104700000446022180300170FF4DFE482A6843882C
:104710001146FF31F7310B8680884886FB48066AD0
:104720000123DB069E431E430662FF320020FF3258
:10473000383250829082D0821D200882F44848840A
:10474000F448C882F448088300204882384645F778
:1047500099F901462868FF30F730C28B920992011F
:104760000A43C283ED48416800208847002C02D0EC
:10477000204644F730FA2046F8BDFFB58BB0064618
:1047800016980027022821D00D980188149881429C
:1047900078D37188084640383F2802D8159851F7D9
:1047A0002DFA0C98361D0088149A80190E995AF724
:1047B000A3FC0C980188149808180C9908800D988F
:1047C00001881498081A0D9908805CE100200E9D5C
:1047D000079069782C78090221433180E978AC7818
:1047E0000902214371808C46403904242D1D024664
:1047F00003468E46402900D32878614604291FD0FD
:10480000052914D0062918D070463F283DD81598A0
:1048100051F7F4F90006000E04D0C148008D0006DF
:10482000C00F30D002230120BE4A002712E0697871
:1048300000290FD0BC4A17230CE0BC4A0F2309E023
:10484000522802D0D22802D002E0142000E0152025
:10485000B74A1F23002A1AD0984218D28000105855
:104860000490002813D000200890059070884038EC
:10487000402803D32878052430716D1C701D0090EA
:104880000498B5E0FEE03027F0E03327EEE07088D2
:10489000042872D10627E9E0522862D00CDC4B28AC
:1048A0003FD004DC41286AD0422858D111E04C287E
:1048B00020D0502853D140E0632830D004DC572862
:1048C00018D061284BD19BE06C2864D0772846D162
:1048D00009E00098297801700098641C401CA4B27B
:1048E0006D1C009081E00498401C049001780898A9
:1048F00081427AD10098A41C401C41084900881CC0
:10490000009068782A780002104308800599AD1C51
:10491000A4B2002969D008900020059065E001202C
:10492000FBE71022294600985AF7E6FB009810345E
:104930001030A4B21035009057E020464030149952
:10494000039088420BD84022294600985AF7D4FB9E
:104950000098403000900398403584B245E03427F9
:1049600043E00822294600985AF7C6FB009808340D
:104970000830A4B20835009037E068E0FFE706226F
:10498000294600985AF7B8FB0098A41D801DA4B2D0
:10499000AD1D009029E01498001B80B20390308870
:1049A000001B001D81B2012007900498401C049058
:1049B0000098401C40084000009004980078572858
:1049C0001CD04228CBD100980170090A4170009890
:1049D0002946801C0090039A5AF78EFB039803998E
:1049E000201884B20098401800900498401C04904D
:1049F000007800281ED0002F17D01BE04908E2E7FE
:104A00001498001B81B200980391401C400840009C
:104A1000009001200A460790294600985AF76CFB3F
:104A20000399601884B20098DDE70D990988A142C6
:104A300000D331E70D980088A04208D30499097883
:104A4000002904D10799002903D1A04201D03427BD
:104A50000CE00D99001B08800C9801880098801BC1
:104A6000001F08180C99002F08800CD070880428AB
:104A700009D0062807D04038402804D30E98407942
:104A8000707100E0342738460FB0F0BDFFB581B03B
:104A90001F4616460C46104658F7F2F900257F28A7
:104AA00002D02189062909D03B4632462146019889
:104AB00051F737FC0546284605B0F0BDC00601D5C4
:104AC0000225F8E720780028F5D1300AA11D3DF72E
:104AD000C0FDF0E7F1B598B018983DF7B8FF04466F
:104AE000189805210079134A4006C00F09906846BE
:104AF0000184618B08460A38904276D2E08A062803
:104B000073D319E030BCFC074CB9FC07C00000406F
:104B100010800000294100007671000058BFFC079A
:104B200048BEFC073803F2074003F2079C03F20774
:104B3000D803F207770C00001922D201904254D812
:104B4000228BFF23F5339A424FD8521C9300D21880
:104B50004243521C0A23521059438A4245DC217FAA
:104B600000290CD1617F002909D1A17F002906D13C
:104B7000E17F002903D12021095DC90635D02746F0
:104B800020377978C906C90E491F0C292DD2A18A70
:104B900081422AD8E17C002927D0421E082A01D967
:104BA000082000E0401E81421FD8684642F710F8F6
:104BB00000281AD1FE4D0622286221460BA85AF77A
:104BC0009BFAA8792E46803E00287DD06079800926
:104BD00001280BD00BA8099948F7C9FA010003D0A6
:104BE0003820405C002870D09CE009E1F06A807AAF
:104BF000012808D0042806D00BA848F725FB286216
:104C000000284ED054E0686A06220BA932305AF7C9
:104C100097FA002806D00BA848F716FB2862002850
:104C200002D012E0686AF9E700210BA848F722FBDE
:104C30002862F16A897A012905D18B071A68490629
:104C40008A430A431A60002811D0F16A286A0622B2
:104C5000253010315AF774FA002808D1286AF16A11
:104C60002030C07AC97B884201D1286A1EE0D14831
:104C7000D1490088C96880B20622504308183DF720
:104C8000EBFE014614A8062202305AF735FA13AAA1
:104C900000213C203EF7ADF90121B06D43F7D4FB74
:104CA000AAE011A90BA848F7E5FA2862002839D034
:104CB00001460A9006220FA825315AF71DFA0A99D3
:104CC00008AA2031C97A01E042E025E00FA848F7A0
:104CD00031F9002812D0286A2030C07A002809D182
:104CE0006846B649008C47F798F808AA0121B348EE
:104CF00048F720F968460BA9008C0AE008AA0121B0
:104D000011A848F717F900280CD0296A6846008CCA
:104D1000323147F798F805E00A18527D002A08D08A
:104D200010286DDBF06A407A022806D0032804D0F0
:104D30000EE0401C1028EFDBF4E76846008C0528E5
:104D400006D308AA0BA8099948F7F4F8002857D009
:104D500000226946204648F796F9002850D1F06AAB
:104D6000407A02280BD0032809D000236846028825
:104D70000BA8099948F7A8F9002802D02FE00123D1
:104D8000F4E7E18A68460181218B4181618B818151
:104D9000787806224109684681757878C106C90E7F
:104DA0006846417521460E305AF7A6F918980079E1
:104DB0004006C10F684601750388214602A8B26DFE
:104DC00042F7E8FE0146B06502A83EF760F9002010
:104DD000B065214668461C31008841F74CFF44F716
:104DE000CBFF734C2034207A002805D00021092005
:104DF00058F789F9002020720021084658F72BF84F
:104E000019B0F0BDF8B56E4C064685000F466059E6
:104E10004C21095C24290ED140691022791D2E30C5
:104E20005AF76AF96159252040310873002211466A
:104E3000304650F736F860594C21095C0C291FD1D7
:104E400040691022791D2E305AF756F960595F21BA
:104E50004069095C09072DD401462E3110221E300D
:104E60005AF76EF900280CD06059092140300173BF
:104E7000304650F733FD0146002230464FF790FB95
:104E8000F8BD0421684601706A46052130464FF797
:104E900031FD684601786020014368460170304664
:104EA00050F71CFD014668460278012330464FF753
:104EB0008CFCF8BD304650F711FD012809D060592F
:104EC0000721403001730022114630464FF7E9FFB9
:104ED000F8BD615900204969C031887160590421C9
:104EE000426930461E324FF705FD60594169403135
:104EF000897F002907D01A214030017300213046F4
:104F000050F759F8F8BD1B2140300173304650F777
:104F1000A7F8F8BDF8B52A4C05468600A0594C22E2
:104F2000125C192A11D140224D30491D5AF7E4F87C
:104F3000A059402223494D305AF702F9002805D0E4
:104F400020492846203957F766FAF8BD0B216846F4
:104F500001706A46052128464FF7CCFC6846017867
:104F60006020014368460170284650F7B7FC0146AF
:104F700068460278012328464FF727FCF8BDFFB5A5
:104F800081B003980C46060A002557F779FF0028E0
:104F900027D0132825D0142823D00B48B700C05998
:104FA0002030407BC00637D5039857F769FF0DE0E6
:104FB00030BCFC0768B9FC0760BBFC0750F5F10783
:104FC0003CBEFC07FCBDFC0778BBFC0715280CD0D9
:104FD000A0793DF72FFD304642F7CAFD032806D0E1
:104FE00015E0A0793DF726FD1FE002251DE0A84849
:104FF000C0592030407B400704D53D2130463EF764
:1050000017FA04E03D22002130463EF720FA3D2108
:10501000304641F7F5FD08E0204610389D490181F2
:10502000468120464AF7DEFA0125284644E5F8B5D0
:1050300010460D46140A57F723FF010030D094485C
:10504000A200835801271E8BBF023E431E831329F3
:1050500026D0142924D0152911D080582D21095C7F
:105060000123CA06002A0CDA0246A032967D002EE1
:1050700007D093753D21204641F7C2FD10E0022084
:10508000F8BD090703D50021A0308175F7E7A030EE
:10509000837520463EF74CFF294620463EF780FFA9
:1050A0000020F8BDFFB581B01546170A104657F726
:1050B000E7FE002837D0132835D0142833D0290A2A
:1050C0008C00734E152815D0FF202946033058F761
:1050D0001AF830592D21095CC90603D5A030C07DCE
:1050E00000280DD03D026D1CA8B257F7C9FE192843
:1050F0000BD00EE030590121A030C1750220DBE455
:105100003D21384641F77CFD0DE0A8B2012157F75B
:10511000A2FE30590122018B52029143018338468D
:1051200002993EF73DFF0020C6E4F0B558498700DC
:10513000C959002680314A8C8B8C1B2A00D21B2235
:105140008C8B944200D222468A849A4200D0012657
:105150000B8CCD8C1B2B00D21B23CC8B9C4200D202
:105160002346CB84AB4200D001260B8ECD8D9C46CE
:10517000FF2349339D4201D21C4600E02C460D8D91
:10518000A54200D325460D86654500D001264C8EEC
:10519000A4468C8D9C4200D21C464B8DA34200D26B
:1051A0001C464C86644500D00126EB080B3B9BB2A5
:1051B0009A4200D213468B86522335495843364BC8
:1051C000CA591C688032D28C0419FF34D2B201341F
:1051D0002286C9591A6880318018FF30498E013003
:1051E00041863046F0BD2D485222006864308188E7
:1051F000C37E5143284A12688918FF225F32525AEF
:10520000FF31120AD21A01310B8CD2B2DB0B09D05A
:105210000B8C5B045B0C0B84002A03D18088204A32
:10522000012111547047FFB51746140A81B0184A7E
:105230000298A100515840780026194D002907D046
:10524000295D002905D0002803D120463FF754FBF3
:105250002E553A46049B0299019840F7DEFA2BE45A
:1052600010B518220F49104859F746FF0D4B0F484B
:105270000C3B0ECB0EC00C480D49A03001600D490F
:10528000416009490C482039086010BD7047000092
:1052900078BBFC07060800004CB9FC0784BBFC0780
:1052A000988EFC07FC5EFC0720000840C000FC074D
:1052B0000459F007490C00BF07001000064C0125F7
:1052C000064E05E0E36807CC2B430C3C98471034AE
:1052D000B442F7D3FAF720FF145FFC07345FFC07F2
:1052E0000FB410B503A9044B044A029800F044F827
:1052F00010BC08BC04B01847A146FC073C5FFC0783
:105300000FB410B504A9074B02AA039800F034F8B3
:10531000044602A9002000F069FA204610BC08BC2F
:1053200004B01847ED57FC07F8B5040C8BB22646BD
:1053300082B25E430D0C1046370C58433604801978
:105340000021794116466E43370C360480197941A5
:1053500026466E438919F8BD02E008C8121F08C12D
:10536000002AFAD170477047002001E001C1121FE6
:10537000002AFBD170470000FFB591B00F460546EB
:10538000002606E025280AD0149A139990476D1C30
:10539000761C28780028F5D1304615B0F0BD0024E1
:1053A00000940121F34A029400E004436D1C2B7821
:1053B0000846203B98401042F7D128782A280ED082
:1053C0000222287801463039092915D800990A2384
:1053D00059433039401814436D1C0090F1E701CF58
:1053E0000090002805DA0120400304430098404261
:1053F0000090022004436D1C28782E2815D104202B
:10540000044368786D1C2A280AD101CF6D1C0290D4
:105410000BE002990A225143303940186D1C02906A
:105420002878014630390929F3D928786C2810D01A
:1054300006DC4C281AD068280ED06A2817D104E060
:10544000742813D07A2812D110E0012040050443BB
:105450000CE00121090501E0032109050C436978ED
:10546000814203D10120000524186D1C6D1C287891
:105470006E281ED00CDC632831D004DC00288BD0D1
:10548000582811D1B2E064287BD069280CD178E08B
:1054900073282DD004DC6F2870D0702804D1A7E0C9
:1054A00075286CD078286BD0149A13999047761C85
:1054B00062E06002400F022807D003280AD00428C7
:1054C00038680AD006603F1D56E03868F11706605C
:1054D0004160F8E738680680F5E70670F3E738784A
:1054E000694608740020487404A80390012003E072
:1054F000386803900020C0433F1D61070FD500218D
:1055000001E00199491C029A0191914213DA81420A
:10551000F7DB019A0399895C0029F2D10BE00021A5
:1055200001E00199491C01918142FADB019A03993A
:10553000895C0029F5D101990098139A401A0090CE
:105540002146149B00F03CF901998019461807E0A8
:10555000039803990078491C0391149A1399904772
:105560000198401E0190401CF2D12146149B139AD1
:10557000009800F015F986196D1C0AE741E033E048
:1055800034E00A200021049005916002410F0229B5
:1055900005D001CFC2179446032905D007E0FF1DAF
:1055A000FF08FF0003CF06E000B2C21794460429AB
:1055B00002D140B2C1178C4600226146944506DAFA
:1055C0000A460021404291418C462D2102E02105EE
:1055D00004D52B216A461176012103E0E10701D0B1
:1055E0002021F7E7019155E00A200BE0102009E0A7
:1055F000102004900021042004430820059102900B
:1056000003E008200021059104906002410F022967
:1056100005D001CF00229446032906D006E0FF1DE5
:10562000FF08FF0003CF8C4603E080B2042900D1BD
:10563000C0B20021019121072CD52978039170294E
:1056400006D0049A1021059B4A401A4305D00EE06B
:1056500040216A461176012108E06146014306D0E7
:1056600030216A4611760399517602210191049AFC
:105670000821059B4A401A430CD16146014301D1E0
:10568000610707D530216A461176012101910299FF
:10569000491E02912978582904D037A103910FA9F6
:1056A0000F910DE039A1F9E76146059B049A5DF77A
:1056B000D7FE039B8C469B5C0F9A521E0F92137071
:1056C00061460143F0D10F9807A9081A20300390D2
:1056D000600704D5012000048443029801E0012002
:1056E00002900399884201DD401A00E00020411831
:1056F0000290019809180098401A0090E00306D41F
:105700002146149B139A009800F05AF8861900203D
:10571000049008E006A9085C149A1399904704982D
:10572000401C761C049001998842F3DBE0030CD501
:105730002146149B139A009800F042F8861904E061
:10574000149A302013999047761C0299481E0290B3
:105750000029F5DC08E00F980F990078491C0F919B
:10576000149A13999047761C0399481E03900029B8
:10577000F1DCFAE6092801003031323334353637AE
:10578000383961626364656600000000303132338D
:10579000343536373839414243444546000000002D
:1057A000F8B5044600251E461746880404D405E0D3
:1057B00039462020B0476D1C641EF9D52846F8BD37
:1057C000FFB50446002581B01E46C80301D5302729
:1057D00000E02027880404D505E038460399B04747
:1057E0006D1C641EF9D5284605B0F0BD0A68531C2F
:1057F0000B6010707047000010B5002823D0124BCA
:105800000022001F196803E0814203D80A46496854
:105810000029F9D1002A0AD01368841A9C4204D1C5
:10582000006818181060104602E0506000E0186030
:10583000002907D002680B1A934203D10B68D218D3
:1058400002604968416010BD405FFC07F0B50B3055
:10585000C108C900144F0026144A0FE003688B42A8
:105860000BD38B4205D95C1A4318456830C3083BFB
:1058700000E04368136002C004E0021D10680028C5
:10588000ECD13046002803D13868002801D0002030
:10589000F0BD064A06481060064A121AD208D20025
:1058A00044C001203860D7E7445FFC07405FFC0735
:1058B0002C66FC072867FC07485FFC07C58BFC07C4
:1058C000C68BFC07C08BFC07C48BFC076503FC0779
:1058D0008303FC075F07FC07A707FC07F40101002F
:1058E00070CAEA80D007064064320000DC58FC072A
:1058F000F88BFC078924FC072725FC0793DEF007BB
:10590000F1DEF007F9DEF00749DFF00761DFF007AD
:1059100077DFF00799DFF00719E3F007BDE5F0073F
:10592000FDE3F0071DE4F0073DE4F0077BE4F0073A
:105930008BE4F007F5F9F007B1F7F007CFF7F007C0
:10594000EBF7F00705F8F00719F8F00797F8F007FC
:10595000AFF8F007DFCDF10767D0F107DBB9F0074B
:10596000CD0DF207B10EF207AD0EF207A90EF20748
:105970008D21F007C506FC072D20FC07190AFC073E
:105980004B09FC073509FC07B57EF007837DF0075E
:10599000ED46FC07599EF107634CF107952BFC0778
:1059A000D110F207972BFC07B111F2074112F20751
:1059B0007912F20700000000BF06FC07C106FC07D1
:1059C000B9C6F007D592F1077B47FC075F9DF10749
:1059D0005F9CF1078D4AFC07EB72F107B922F107D2
:1059E0006B04F1079506FC072BA4F007F1D2F00732
:1059F0005FBDF007D5BDF00785BEF0072B51FC0752
:105A0000752EF0071581F007DF7FF0070937F007E3
:105A100000000000AF06FC07B706FC079706FC076E
:105A2000F3C3F10775C4F107C306FC077F25FC0724
:105A30000000000000000000000000000000000066
:105A40000000000000000000000000000000000056
:105A50000000000000000000000000000000000046
:105A60000000000000000000000000000000000036
:105A700005000000286DFC0700040000A892FC0748
:105A8000AC0200009C8EFC07000400006095FC073F
:105A9000700500002003000000A60E0004000000B6
:105AA000D2000000320000003C00000001000000B5
:105AB00001000000020000000200000004000000DD
:105AC00003000000060000000000000002000000CB
:105AD00002000000000000000000000003000000C1
:105AE00003000000050000000500000006000000A3
:105AF0000A0000000A000000C8000000B80B000007
:105B000002000000B80B0000B80B000010000000FD
:105B1000D4010000CC010000700200006A00000007
:105B20000400000001000000200000000A00000046
:105B300001000000E20400008A020000DC05000011
