:0200000407FCF7
:10000000A055FC07BD01FC07C501FC07DD01FC078D
:1000100000000000000000000000000000000000E0
:10002000000000000000000000000000F501FC07D7
:100030000000000000000000F701FC07F901FC07C8
:10004000ED20FC072721FC07A526F0071518FC0763
:10005000551BFC07FB01FC074517FC07FB01FC07D0
:10006000FB01FC07FB01FC07D314FC07D714FC07BA
:10007000DB14FC07DF14FC07E314FC07FB01FC079F
:100080001D15FC07F11FFC07CF1FFC07FB01FC0738
:10009000FB01FC07FB01FC07FB01FC07FB01FC0764
:0800A000000000008E070E00B5
:0200000407FCF7
:100110000448854604F0AAFB004800476503FC0735
:10012000C046C046A055FC0710B51F480189C90844
:10013000C9000181018A1D4CC90713D0808800289D
:1001400010D11B481949428820310A8182888A804F
:10015000C2880A80618AFF22813200889143C001EF
:10016000014361821349062008800F2000F00EF839
:10017000012000F00BF8002000F008F8608904214D
:10018000884360810020208062B610BD002809DB12
:10019000C106C90E0120884007490860BFF34F8F90
:1001A000BFF36F8F70470000000300500000005045
:1001B000A000FC070034005080E100E00F488047B9
:1001C0000F48004704207146084203D0EFF309802E
:1001D0000C490847EFF308800A4908470420714694
:1001E000084203D0EFF3098007490847EFF308807E
:1001F00005490847FEE7FEE7FEE7FEE72901FC07A1
:100200001101FC07A502FC070D02FC0710B504460E
:1002100020484089C00508D51B2001F01BF81D4867
:1002200060300188012211430180052212071088E5
:10023000518A0007800FFF2381339943C001014396
:10024000518215492068086060684860A06888602D
:10025000E068C8602069086160694861A0698861D8
:10026000E069C8610C620D48836A4B62C36A8B62A5
:10027000036BCB62C36B0B63436B4B63806B886315
:10028000074908200880908AC00601D500BE10BD2D
:10029000FEE70000200000500090FC0700ED00E0A9
:1002A0000033005070B5052504462D07288A042127
:1002B00008432882288940210843288124480126B0
:1002C000066024490820088023484089C00507D5D6
:1002D0001B2000F0BFFF20486030018831430180BF
:1002E0002888698A0007800FFF2281329143C0016C
:1002F0000143698219492068086160684861A06803
:100300008861E068C8612069086260694862A06924
:100310008862E069C8620C631148826A4A63C26AF3
:100320008A63026BCA63C26B0C4940310A60426B3C
:100330004A60806B8860A88AC00608D500BE688ABB
:10034000012180088000C9030843688270BDFEE770
:1003500080E200E000330050200000504090FC0795
:1003600000ED00E008B500F0C4F800F0C7FB05247C
:1003700024070825C826A74F0DE0012000F080FAC9
:1003800000200090042168464DF7D8FB002817D0C4
:1003900000F039FB14E02089000611D50120800708
:1003A000006B00040CD49C480078C00708D15DF7AE
:1003B00024F8002000F064FA984800780428DCD083
:1003C00072B601F045FF042806D002280BD003289E
:1003D00009D0012817D017E091480078012801D0F2
:1003E000032000E0022000F04EF8A08AC00601D5EC
:1003F0008C48058030BFA08AC00601D58948458059
:1004000000F005F800E030BF62B63E80C3E710B5EB
:1004100000F0FDF9844902280CD105200007408A2C
:10042000C005820F814802800A8942808A888280C2
:100430000A88C28048896021C00500280ADB7A4802
:1004400060300088C00705D0774A2032508A884340
:1004500020305082764882888A43203282807548D4
:10046000C078002807D07448006801898AB24168C2
:1004700003205CF723F903F074FB70480169042240
:100480009143016110BD38B5694605240870240701
:10049000218A054604221143218200F063F8624854
:1004A00041896022C905002905DB5F4B2033598A49
:1004B0009143403159825E498B88934340338B800E
:1004C000022D01D0032D13D1818849084900818074
:1004D000002000900099491C00911429FADB6189E1
:1004E00089088900491C618161894906FCD56080C1
:1004F00038BDF0B55248534905230127524A884276
:1005000001D31C4604E0904201D33C4600E00024A5
:100510004E4D4F4E4748AD194E4E8470AD190126D1
:10052000B6034560B54201D8142500E000252540FA
:10053000494C45708C4213D2484B2546EB189442E7
:1005400005D38B4201D211230AE03B4608E09342D7
:1005500001D2142304E08B4201D2102300E00023D7
:100560000370F0BDF8B5022801D0032848D1334A02
:10057000136904210B4313612D4A203A93895B08C8
:100580005B009381052410222A4E240702287578E7
:10059000608A36D010436082608A08436082706847
:1005A000C01C870801F044FB608A10210843608268
:1005B0002B487F1E0762EFF31080012181F3108822
:1005C0002188802291432180002800D0012080F3DF
:1005D000108815484089C0050AD501F017FB0B208B
:1005E00000F038FE1048603001880122114301807C
:1005F00003205CF789F8002806D00120F0702583DD
:10060000F8BD90436082F3E70020F0703078054039
:10061000F5E700000031005054BAFC07908CFC074D
:10062000B4BAFC070033005020000050A000FC07C3
:1006300020030050288BFC0758B9FC0700ED00E0B0
:10064000288BFC070070FC070040FC071001FC072A
:10065000F44D0000000004F8A055FC070C04000055
:100660000000F407704770B50D46002442F747F9C3
:100670002855641CE4B2202CF8D3002070BD10B5BE
:100680005EF728FD10BD10B55EF72DFD10BD70475B
:1006900070470749884200D000BE05210907488AF3
:1006A000012280088000D203104348827047000076
:1006B0001111111169480178002902D0802141707F
:1006C00070476749002008706649C87070476349E1
:1006D0000A78002A03D000280CD002200BE0002862
:1006E00001D0022000E001205D4908705D49012031
:1006F000C87070470120803048707047F0B594464C
:100700000A46594908269E460E8072B605242407DB
:10071000218A042529432182278980218F4327812B
:10072000278940210F43278150490D80A1886F02FE
:10073000B943A1804E4F691F3960A18AC906FCD414
:10074000618AFF278137B94361824A490F8A7F084E
:100750007F000F82484F3B692B433B61278BBF08CB
:10076000BF0007432783208B0C27B8439200104318
:100770002083208B30229043624612011043208355
:10078000208A0122104320828889904372461043B8
:1007900088813848203001880F229202114301805D
:1007A0000188012292031143018034494989602262
:1007B000CB0532492031002B4B8A07DA9343203393
:1007C0004B82018889088900891C04E013434B820D
:1007D0000188032319430180018831430180018886
:1007E000A9430180818891434031818000BF00BFCF
:1007F00000BF30BFF0BD002805D0012804D002287A
:1008000004D1012063E755E70020FBE77047144956
:1008100000200978002904D0012903D0022900D141
:1008200002207047012070470C48C07870470020B4
:10083000EFF31081012282F310880522120712893A
:10084000120605D40848028901231A43028118467A
:10085000002900D0012181F310887047308BFC07FC
:10086000B4BAFC0754BAFC07003300500002005031
:1008700080E200E00003005000ED00E020000050A6
:1008800010B5FE4CA178002921D0FD49002803D0E5
:1008900008884007FCD402E00888400717D4CA88BB
:1008A000888811040A180020A070F64800235043DD
:1008B000800B401C4008E0611F204006492162F780
:1008C000CFFDE162A06264214843000CA06110BD2D
:1008D000EB494880088803221043088008880422D6
:1008E00010430880E54901208870704770B50520E5
:1008F000000701893022914301810189802211433F
:1009000001810189082211430181DF490A885208C7
:1009100052000A804389182293434381048940236B
:100920001C430481048A0425AC430482848AA407FE
:10093000FCD5D24DAA246C61CD8801240F26360245
:10094000B5430B263602AD19CD80CD882543CD8029
:1009500044899443083444814A88520852004A80AA
:100960000189994301810120800701688215914323
:100970000160C64801683F2252029143421489181F
:100980000160016802031143016070BD10B5BB49ED
:100990000122D203C969904205D303F079FF89058A
:1009A000800A084310BD4843800A10BDEEE710B529
:1009B000B24989694843B649401849005EF722FBAD
:1009C00010BDF4E770B500F0CEFB0446FFF7F9FF69
:1009D000AA4D288120463C30FFF7F3FFAD49001DAA
:1009E00088602A891018C01DAB4A48601278022A14
:1009F00001D111304860FFF7D9FFA849401880B2F3
:100A00005CF78CFD70BDF0B5A54985B00120C863C9
:100A1000C86B0028FCD101208007C069974C216970
:100A2000884201D2002121611922411AD20191424A
:100A30002AD320619B4801880391418802918788CD
:100A4000C688994903C900900191684600F059FE93
:100A500000F081FE0546012020567F280CD0281A80
:100A600040B2002801DA404240B2082805DBE068C5
:100A7000401CE06001F0A9FD65708A480299418040
:100A80008780C6800399018005B0F0BD00207047C3
:100A900010B5864900200860FFF794FF0120800709
:100AA000016B49004908016310BD08B5734988808E
:100AB00075498A88520852008A8000220092009963
:100AC000491C00911429FADB052109074B899B0871
:100AD0009B005B1C4B814B895B06FCD54880E12069
:100AE000C0000092521C00928242FBDB48898008C1
:100AF0008000488148890006FCD508BDF8B56C48DF
:100B0000C8210180002747806A480824448000F0FB
:100B1000E7FB694DA988684601800088C046C04649
:100B200068460188042081433ED0AF80624820306F
:100B300001880F22920211430180534A2032518AC8
:100B400021435182504960310B880625AB430B800D
:100B50000588CB011D430580558A9D435582938AA4
:100B60000E25AB439B1D9382474B5D89EE05534D8C
:100B70000E881ED5AE43150175190D800D880E0225
:100B80002D052D0DAD190D8005882543058005889F
:100B90000426B54305800D886D086D000D80018821
:100BA0004025A943018021E0288A4008400028828E
:100BB000BCE7AE4303256D0275190D800D880F2625
:100BC000360335430D800588A54305800588042636
:100BD000B5430580958A03267602B54395820D8834
:100BE000012635430D8059894907FCD50188032525
:100BF00029430180558A60218D43203555828288A2
:100C00008A432032828001201C49052508702D0767
:100C1000E88AC02188438030E882188A000A0002EE
:100C20001882188B1C2188430830188301F000F8C3
:100C3000022000F0C2FF224E3069C0B2AA2870D054
:100C4000012029880C229143800001432980C0465D
:100C5000C0460A48203000F0AFFA00F023F900F057
:100C60007FFA00285FD000F07BFAFFF71EFF0348F1
:100C70007F214170B06A0749086023E0388BFC0788
:100C80000016005011110100200000500002004029
:100C900020A10700084FFC07B4BAFC07E2040000DB
:100CA000C0000040001500505C4BFC07A8B9FC07D1
:100CB000003100500033005000030050000F0000CE
:100CC000C07FF80700F0E4FF00F03EF802F049FFB3
:100CD000012041F71AFEFFF709FE1748006841F7A7
:100CE000B9FA1648C770077101208007016882159C
:100CF0001143016001F012F81E20FFF7E9FD012009
:100D0000FFF7BEFDFFF7D6FC02F06CFA02F057FFCA
:100D1000FFF7BEFE0A49C82008800A484480F8BD93
:100D2000FFE703208DE73069C0B2AA2801D06E200A
:100D30009BE7802099E700004CB9FC0754BAFC07F8
:100D4000003100500033005070B53548334D006815
:100D500034492C6892B0884205D0052252023249AB
:100D600032485EF7C9F9324E324930465EF7DDF956
:100D70000721314809025EF7D8F92C6003F05EFDC7
:100D80002F492E4808602F480024048030222E4925
:100D90002E485EF7B1F929490822083903C9119193
:100DA000109010A92A485EF7A7F92449402228315B
:100DB00068465EF7A1F94022694626485EF79CF92D
:100DC00025482749047025480860274925480860B8
:100DD00027492648086027490A20087026482749DD
:100DE000047032200870264905200860254A012138
:100DF000116025490860254906200860244907201C
:100E00000860244908200860FF2023490730086053
:100E1000224908602248066012B070BD5CBAFC0727
:100E20009CB8FC076587341200B0FC07208EFC07D5
:100E300000A0FC07AC14000000B9FC076C4BFC07D9
:100E400060BAFC07688BFC077CFCF10700BAFC0762
:100E5000DAB9FC07B0BCFC07FDB9FC07603FF2073C
:100E600050B9FC07F448FC0754B9FC07704AFC076A
:100E700058B9FC07B0B9FC07B1B9FC07D9B9FC07F0
:100E80005CB9FC0760B9FC0764B9FC0768B9FC07EA
:100E90006CB9FC0770B9FC0748B9FC0744B9FC07FA
:100EA0004CB9FC07F0B5B84C89B0002020766076CC
:100EB00003900120C046C046B4480169B44881424D
:100EC00002D0C01709B0F0BDB04F0425403FE8196B
:100ED000016D0191090F092910D001220198920793
:100EE00090427AD3AB4A904277D8AB4908358842D2
:100EF00074D1E819C16CA9484180A6E0019A019912
:100F00001204C9B2160E112935D007DC0B005EF7AA
:100F100047F9087474747474740D1F7412390B00DB
:100F20005EF73EF9063A4B5D6B60656B207EB20062
:100F3000C1009548403808189449143169185EF783
:100F4000DBF8207E8019C0B22076042854D854E003
:100F5000607EB200C1008C48403808188B491030C0
:100F6000143169185EF7C8F8607E8019C0B26076E7
:100F70000C2841D841E0416D89B20291406D000CCE
:100F800001460490029800F0F1F8A08004990298BC
:100F900000F0F4F8E08030E0416D89B20491406DDA
:100FA000000C01460290049800F0E0F820810299BC
:100FB000049800F0E3F860811FE0039805A9800021
:100FC00040187249B200143169185EF795F8039819
:100FD0008019039002280FD80FE02BE010E0406D3D
:100FE00060820AE0416D68484038016405E0406D68
:100FF0000004000CA08200D100BEB00045194DE0F5
:1010000065492639884203D1E819C06CE0821CE0AA
:101010006149091F884204D1E819C06C5F49888082
:1010200013E05D49083988420FD1E819C06C5B496B
:10103000C8800AE007292ED008292FD00A292DD0F0
:1010400006292BD0401C07D000BE5048103029186C
:101050005348814200D23AE70598A0810698050CD2
:1010600086B22946304600F081F8E08129463046B4
:1010700000F084F82082207EC10700D000BE400826
:101080002076607EC10700D000BE40086076A18A4D
:10109000002905D007E00020C046C0462D1DD4E73A
:1010A0007D21C900A182042800D000BE002009E7EC
:1010B000F8B5354C0025403C334F24E0EE00A059F4
:1010C000384988421AD1301900904068800A40049B
:1010D00014D001F05FFD092810D900980322406860
:1010E0001202014609041040890E0843A159086004
:1010F00000982D494068C001C00D02E030194068D9
:10110000A15908606D1C387EA842D7DCF8BDF8B53F
:101110001D4C0025403C2746403717E0E8000619E3
:101120002248316981420DD101F034FD092809D9E5
:101130001F49706908401C490988490408433169FE
:10114000086002E03069716901606D1C787EA84218
:10115000E4DCF8BD0C48808970470B48408A704732
:101160000948C08A70470848808A7047081A0104F5
:10117000890C40180F49401800B27047C20080180F
:10118000401A0004C0147047AC8BFC07C07EF807FF
:10119000A5A5A5A54C42005028000050A000FC07C2
:1011A000C07FF8074C100040144FFC073830004057
:1011B000FFFF01FC0100FFFF10B5062201495DF7AA
:1011C0009BFF10BDD47FF80705200007018830225F
:1011D00011430180018803221143018070470520DB
:1011E0000007018830229143018001888908890025
:1011F0000180704736490A8B03231B029A43000281
:1012000002430A83704733498A8A03235B029A4365
:10121000C3085B021A438A828A8A0723DB024007DB
:101220009A43800C02438A822A4840300188012276
:10123000114301802748203841894907FCD5704770
:101240002448818A808A4905890F8004400FC9009B
:10125000081870471F498A8A03235B029A43C30810
:101260005B021A438A828A8A0723DB0240079A4379
:10127000800C02438A82704710B504461548203816
:101280004089C00502D40120C04310BD00F0BBFC62
:10129000002806D0FFF7D4FFA04202D90020C043A7
:1012A00010BD0C48408AC00408D40B4800880007D1
:1012B00004D4082C02D20420C04310BD07480121E9
:1012C000047041702046FFF79EFF002010BD000013
:1012D000203000504000005020030050184FFC0701
:1012E000F0B585B00026884C02960298302148431C
:1012F000009600190099890046500099491C0091F8
:101300000C29F7DB0298401C02900128EDDB02F06B
:101310008DFB7D4D0021083D296069600127029603
:1013200000200090029979484900465A00993846B1
:10133000884080B206421DD002983021484300996F
:10134000001989004058411C1BD000280DD0C1173E
:10135000009A5DF715FF029A12015DF711FF2A68E6
:101360006B6810431943286069600098401C009026
:101370000C28DBDB0298401C02900128D0DB05B072
:10138000F0BD00BEE3E7F8B5164605460C460A4632
:101390001F46012000215DF7F3FE2A015DF7F0FEF4
:1013A000594B083B1A685B6810401940084300D14C
:1013B00000BE680156494018610008183E43C680C7
:1013C000F8BD70B505460C460A46012000215DF7C0
:1013D000D7FE2A015DF7D4FE4B4A083A13685268DB
:1013E00018401140084300D100BE68014849401828
:1013F0000121A140818070BD70B505460C460A46AA
:10140000012000215DF7BCFE2A015DF7B9FE3E4ACE
:10141000083A1368526818401140084300D100BED2
:1014200068013B4940180121A140418070BDFFB5D2
:1014300081B00C4605460A461F46012000210A9E3F
:101440005DF79EFE2A015DF79BFE2F4B083B1A6855
:101450005B6810401940084300D100BE002E2146B1
:10146000284602D0FFF7C8FF01E0FFF7AAFF3B467E
:1014700021462846039AFFF786FF80E770B50124CE
:1014800021460A3881400D4688B200F02CF884408D
:101490002048C189A9430C43C48170BD10B50446DE
:1014A0000A3804280BD82046FFF7E8FF1649A000A9
:1014B000303140188038806D002801D0804710BD41
:1014C000002CFCDBE106C90E0120884012490860AF
:1014D00010BD0A20E2E70B20E0E70C20DEE70D203C
:1014E000DCE70E20DAE700280BD0411E4840C0039D
:1014F000010C002002E04908401C80B20029FAD10A
:101500007047102070470000D08BFC07D44BFC07BD
:10151000003000500014005080E200E010B5FFF7EA
:101520005EFE0522120790882049000504D5204B55
:101530001C880520A04311D09088C3061D481FD5E4
:101540008388DB071CD003881B0619D50122828003
:10155000028880239A430280486822E01888042287
:101560001043188018884008400018800C68002C30
:1015700005D00220185E995E0A229A5EA04710BD2F
:101580009288D206FBD582889207F8D50288D205C8
:10159000F5D5022282800288FF2301339A4302801C
:1015A00088680028EBD0804710BD0000148CFC0731
:1015B00000020050000100507D4801880122120302
:1015C0009143018070477A48018801221203114338
:1015D0000180642000BF401EFCD170477449CA8856
:1015E000D208D2000243CA8070477149CA8870236A
:1015F0009A4300010243CA807047F8B5050049D0FC
:101600006B4C297820884022904389010843208030
:101610006878FFF7EAFF2878002803D16878000986
:10162000FFF7DCFFE87804260128208833D0B04398
:1016300020802879A1880002C9B20143A180E088F6
:1016400001274006400F7F02042826D0FFF7B4FF91
:10165000A8780F2800D900BE61880F22520291435A
:1016600040020143618068796188890889000143EB
:101670006180A879012820883BD0B8432080E87990
:10168000072800D900BE6188FF22C1329143800142
:1016900001436180F8BD3043CAE7FFF75EFD45496D
:1016A0000028088001D144480880FFF78CFF20887B
:1016B0003843208021884020814301432180608875
:1016C000304360806088C004C00C608060880F2157
:1016D00049028843084360806088FF21C131884304
:1016E000FF2181310843608060888008800060802D
:1016F000F8BD3843C2E72E4801880122114301801A
:10170000704770B505462A4C00202080212000013A
:1017100060804020A080FFF71DFDA081A18970207E
:1017200081434031A181062000F035F82846FFF7BB
:1017300064FFFFF7E0FF70BD1D48018802221143DE
:10174000018070471A490120C8811C4800680028A0
:1017500000D00047704710B5FFF7EEFF144801882E
:101760008907C90FFBD10121C181008A114A14499F
:101770001288801A7D22D2005043002801DD4A10D1
:1017800002E0002801DA0F4A80185DF751FC801151
:10179000193040B210BD002809DBC106C90E012076
:1017A000884009490860BFF34F8FBFF36F8F7047C0
:1017B000001500501A4FFC0740760000208CFC07F3
:1017C000AA0500002BFDFFFF80E100E0544930B482
:1017D000884201D0012100E00021524A49018918C4
:1017E00008E0838ADB07DB0F12D00388541C8D6866
:1017F000CC81AB54CA898B899A42F2D38288520831
:10180000520082808A69002A02D0C88930BC104701
:1018100030BC704710B5444800F001F810BDF8B571
:101820003F4D404E044620890007000F062826D071
:1018300009DC012840D002281DD00428F3D120461D
:10184000FFF7C4FFEFE7072828D00C28EBD1AC4204
:1018500001D0012000E00020400187192046FFF759
:10186000B5FFA18849084900A180B9690029DAD0EB
:10187000F8898847D7E7204600F01FF8D3E72046CD
:10188000AC4201D0012100E00021490189190A6917
:10189000002AC8D0818A9E2319400BE02046AC4222
:1018A00001D0012100E00021490189190A69002ABB
:1018B000B9D001219047B6E7F8BD194930B4884244
:1018C00001D0012100E00021164A490189180EE0EB
:1018D00003891B069B0F032B1BD0838A9B06DB0F00
:1018E000002B95D0531C0C68CB80A25C0280CA8868
:1018F0008B889A42ECD3828802239A438280828822
:1019000080239A4382804A69002A81D0888830BC2B
:1019100010477C231B5A9B07DB0FE1E778E70000A9
:1019200000100050248CFC070011005010B57D22DF
:101930001202744C904201D17F2005E04100104614
:101940005DF760FB401EC0B22189C909C90101438E
:10195000218110BDEFF31080012181F31088052152
:1019600009078A8801239B021A438A80002800D035
:10197000012080F31088704762498A88920892009B
:1019800002438A80704730B501245E497C235E4A59
:10199000002803D0012807D002280BD08D889D4352
:1019A0001C358D8014740AE08C889C433C348C80F8
:1019B000022103E08C881C438C800421117411786F
:1019C000E12300071940C00E0143117030BD70B50E
:1019D0000446FFF7BFFF4B4D2020288020794007A9
:1019E000400FFFF7D0FF20780007400FFFF7C4FF3C
:1019F0002078C107A88880229043090E0843A88058
:101A0000414923780878DB0740084000DB0F184382
:101A100008700023AB812B8913432B812278D207D6
:101A200012D12279C0069206520FC00E5201104305
:101A300008706088FFF77AFFE079C10728884022A4
:101A40009043490E08432880288820218843288015
:101A5000002070BD2B4908882022904308802A4826
:101A600028490078400920318880704725490020A6
:101A70002031888023490888202290431043088021
:101A8000704770B51F4900230A88520952010A8025
:101A90000A880224A24322430A800A880424A2431B
:101AA00022430A800C880122944314430C80164A76
:101AB0001278D506134A2C0F2032022C01D3060CC3
:101AC00016811080088B000BC007C00FFAD1012CC3
:101AD00001D910890304280F888B04D0C0180A8B01
:101AE000D20BFCD170BDC0B2F9E700B50346FFF7D9
:101AF000B1FF1846FFF7C5FF0346FFF7B7FF1846CB
:101B000000BD000000120050648CFC0710B50120DD
:101B1000FFF739FF05200002FFF7E7FF80B210BD95
:101B200010B5FFF7F3FFC00701D00D20C04310BD73
:101B30000DC807490DC1704710B5FFF7F1FF002828
:101B400005D1FFF720FFB920FFF7CFFF002010BD20
:101B50001C4FFC0710B50A4880890A49C96A002948
:101B600001D0884710BD042000F001F810BD002806
:101B700005DBC106C90E0120884003490860704793
:101B800020130050284FFC0780E200E010B5044607
:101B9000FFF756FBA04202D22046FFF75BFB5848F6
:101BA0000188C90708D101880122114301805448E6
:101BB000603841894907FCD510BD38B5514C054600
:101BC00020684107490F684601700078854219D0A6
:101BD0004B4860384089C0050CD5A81E03005DF74E
:101BE000DFFA05040604040409000B2000E01320BA
:101BF000FFF7CCFF2068C008C00028432060606861
:101C00004007FCD538BD4048007870473E49002069
:101C100008707047052109070988090600D400BE2D
:101C200080003A4909583748016139494161704794
:101C300010B5EFF31084012080F31088304860382D
:101C40004089C0050BD5304901200870FFF7F8FA2C
:101C5000304908702A480088C007C00F4870052026
:101C60000007018880221143018026480168C908C5
:101C7000C900016041684907FCD50320FFF7CAFF8E
:101C8000002C03D0012080F3108810BD0020FAE75B
:101C900070B5EFF31084012080F310880521090747
:101CA000088880221043088016480368DB08DB00A0
:101CB000036043685B07FCD5174B0361144B43611A
:101CC0000888904308800E4860384089C0050ED5CA
:101CD0000D4900200F4D08702878FFF7BBFA68788F
:101CE000002804D106480188490849000180002CD9
:101CF00003D0012080F3108870BD0020FAE70000B7
:101D0000800000500000F407788CFC07D84BFC07DB
:101D1000090404A4184FFC070F009909F8B51D48E1
:101D20001B4D0068A84231D0FF26C1360121304644
:101D30005AF752FD04461848016818480A0A01700B
:101D400042700A0C8270090EC1700022A35CFF2150
:101D5000C0319F07891ABF0F615CC75D7940594048
:101D6000A154521CB242F1D30C481C222146001D42
:101D70005FF756F9002800D000BE20465AF7A7FDAD
:101D80000648406840F7C1FD02480560F8BD000004
:101D9000658734129CB8FC07084FFC07584FFC07B6
:101DA00070B5044640790A215DF72CF90001451809
:101DB00020790A215DF726F909024919000345181F
:101DC000E0780A215DF71EF9090449190005451854
:101DD000A0780A215DF716F909064919000740188D
:101DE0002178012902D161788907081870BDF8B5FA
:101DF00005462A7981785207C800520F84180929AC
:101E000000D93034E8780A215DF7FCF80902091995
:101E1000000346182F88642138465DF7F3F80C4616
:101E2000054620460A215DF7EDF80804861920468C
:101E30000A215DF7E7F80005841928460A215DF7B5
:101E4000E1F8080604197D21C90038465DF7DAF883
:101E500000070019F8BD624A0178516040781063AC
:101E60007047604A10605E4801625F480168FF2267
:101E7000120491430122D205114301605B495011C4
:101E800008607047F8B5564C0D46002825D0002D47
:101E900037D003212160A668E76801786160FFF709
:101EA0007FFFA0602846FFF7A2FFE060E06A002104
:101EB000C0B28207002A06D0C20709D080070AD420
:101EC000E76021601BE0E760A66021600C20F8BDA0
:101ED000A66021602BE021602EE0002D2CD0206830
:101EE000022738432060E6680846FFF780FFE0607D
:101EF000E06A80071DD4E6602068B84320600D20AA
:101F0000F8BD2168012211432160A5680178616054
:101F1000FFF746FFA060E06AC00703D020684008D2
:101F2000400008E0A56020684008400020600E20C6
:101F3000F8BD2068B84320600120F8BDF7B5284CF3
:101F40000E46A16982B0CDB2402161620021A1613B
:101F5000002818D061680278C907C90F914205D0DE
:101F6000A56140202062032005B0F0BD2769FFF77E
:101F700017FF2061E06A400705D42761A561402072
:101F800020620B20F0E7002E1BD0606900903078B3
:101F9000092802D9C700303700E0C70070780A214D
:101FA0005DF730F80902C919000340186061E06A62
:101FB000000706D400986061A561402020620720D8
:101FC000D2E70498A061402020620120CCE70548B8
:101FD0000168002903D00248C069C0B208477047B1
:101FE000004100507C8CFC0710E400E000E100E0C0
:101FF000F8B5164DAE68164C0020207060703005A4
:102000000127002806DA686938436861606800289B
:1020100000D08047F0040AD5700400D527706869A5
:10202000022108436861A068002800D08047B004FE
:102030000AD5300400D567706869042108436861D7
:10204000E068002800D08047F8BD00000040005044
:10205000808CFC07F8B50125AD07AC6B2046FEF778
:10206000A5FC6949694F4A688618002048603946CE
:1020700030465CF7C7FF664948603A465043301A1D
:1020800000D0381A80B20860286B082188430843C2
:1020900028636048046060480068002802D0A042BD
:1020A00000D200BEF8BD10B5FFF799F80520000773
:1020B0004189890703D041898908890041810189C3
:1020C000802211430181018A042291430182818A85
:1020D0008907FCD500F0B4F80120800701694907A1
:1020E00000D500BE01694907FCD510BD10B5FFF74A
:1020F0006BF84A4801894907FCD4FFF770F8484853
:1021000005210088090748804648474C0088801E02
:10211000608007202080FFF757F820884007FCD414
:10212000FFF7C1FF10BDF8B540480168C90703D0EB
:1021300001680222114301600168490204D5016867
:10214000012292051143016001272F4EBD072C6922
:10215000002C57D0200606D58020A8614BF797FBAE
:102160001E20FEF7B5FBA00703D50220A86147F7A4
:102170008CFA20070AD50820A86102F00CFB002089
:1021800047F73CFA0420307000F0FBFCE00505D571
:10219000FF200130A861012047F730FAA00504D5DF
:1021A00001204002A8614BF7DBFB600603D540200D
:1021B000A86147F71EFAE00603D51020A86145F78D
:1021C000DBFD60070FD50420A86114480189490888
:1021D000490001815BF778F940F732FA1E20FEF7DB
:1021E00077FB00203070E00706D00120A8615BF784
:1021F00087F94BF74CFB3770A006A8D52020A861C3
:1022000000BEA4E7F8BD0000908CFC07710200003E
:1022100040000040A08CFC07988CFC070033005065
:102220003C8BFC07408BFC0700160050000200406E
:1022300010B540F74AF8674880686749486010BDA4
:1022400010B540F76EF8644862494068886010BD78
:10225000F8B5002500F0B9F800270090FEF7E4FA81
:1022600001465E4E0020002902D13179022900D1B9
:1022700000905B490989C9070DD15AF78AF90028EE
:1022800009D0F0780125002805D005200007808AB4
:10229000C00701D0042596E0308800287DD1FEF7E4
:1022A000C3FA002806D14F48806A002802D000F007
:1022B0008CF80090FEF786FBB17868465AF761FF0C
:1022C00000286AD00124A407206940067BD4434833
:1022D000817868464BF732FC002874D00120FEF765
:1022E00089FF0099002906D0206AFF383938DA289A
:1022F00001D8491E00913C4802883C4801685018AA
:102300003B4A1060E26B920A92020A43E263E16B7D
:10231000384A1140384A1668B2021143E163E16B52
:10232000C902C90A40050143E163344A0098042503
:102330000021904200D300BE314B0CCB5CF78CFEE9
:102340000903000D0843244A401E711C1060884296
:1023500000D1166021480079002801D0012100E059
:102360000021106847F700FB2648C06A8047FEF747
:102370008DFB002802D0FEF727FF0127154E206BAA
:102380000004C00FFBD03068C005FCD53068802445
:10239000A0433060002F03D000E014E0FEF71FFFE1
:1023A0000F494889462804D24622174B101A186054
:1023B0004A81FFF73DFF30680006FCD50520000785
:1023C0000189A14301812846F8BD10480068806A50
:1023D0007047000000020040988CFC0754BAFC07CC
:1023E0000033005074BEFC07408BFC07104FFC0705
:1023F0006C4FFC07FF03E0FF0C4FFC0740420F004F
:10240000608BFC0758BFFC07948CFC0758B9FC078D
:10241000002070477047704710B5282801D2282047
:1024200002E0E62800D9E620FF21F33148437D2170
:10243000C9005CF7E7FD8130C0B210BD704770473E
:1024400010B5022902D0012900D000BE002802D018
:10245000FF2802D000BE022902D000F09BFB10BD75
:102460000C2010BD01218907086B07221043086367
:102470008C480168021391430160704710B5022037
:10248000FEF7B8FE87480168020391430160864861
:1024900000214163416B1F221204914342138918AA
:1024A000416301060868F0229043E030086010BDE7
:1024B00010B58AB07D4941627D4981627D494161A3
:1024C000002430210C547C49C1627C4901607C4964
:1024D00001627C4941607C49C16100F03EFB724869
:1024E000416B1F22120491434213891841636D48C6
:1024F0000168C2129143016068460455641CE4B24D
:10250000282CFAD3014671482822006840305CF735
:10251000F3FD092000F03BFB00F03FFB002802D058
:10252000012000F034FB00F019FBFEF7C1FDFEF7BF
:10253000EEFD00F0D5F800F058F8FFF79FFF00F02F
:102540000BFB00F083F800F01CFB0AB010BD10B5C7
:102550005548416B1F22120491434213891841636D
:1025600000060168C908C90001600520000701894B
:1025700008221143018100F010FB002802D0012045
:1025800000F005FB00F0EAFAFEF792FDFEF7BFFD52
:1025900000F0A6F800F029F8FFF770FF00F035F81A
:1025A00000F0EFFA10BD10B50446702248494948C2
:1025B0005CF7A2FD47484830011B464810380183AC
:1025C00044495C31091B418310BD10B500F0C6FAC7
:1025D000FEF79DFD00F084F800F007F800F0BCFA6B
:1025E00000F023F800F0CDFA10BD2F4B10B54033AA
:1025F0001868394C0102090EC2B20A3109040A32C4
:10260000204011430143196010BD344A118B3148F9
:10261000103083691B0C1B040B438361518BC2690F
:10262000120C12040A43C26170472C4A203A118BE3
:1026300028481030C3681B0C1B040B43C360518B2C
:102640000269120C12040A430261704710B5FFF7C9
:10265000ECFFFFF7DAFF21482038018A1D481030CF
:102660008268120C12040A4382601C4A403291882C
:10267000036A1B0C1B040B430362D188426A120CD1
:1026800012040A43426215494A88836A1B0C1B04E0
:10269000134383628988C26A120C12040A43C2621D
:1026A00010BD000000020040400000401124FC0763
:1026B0001524FC074124FC076524FC071724FC07AC
:1026C0003D24FC073F24FC071924FC074CB9FC07F8
:1026D000F44BFC0770A0FC0700FF00FF2030004017
:1026E000F0B5FE48406B7F21090288430B210902A7
:1026F0004018FA494863086AF94980B24018F74916
:102700000862886BF749012208405203F349801898
:102710008863F2484030016903231B0219430161B9
:10272000818B102421438183EC482030818801244F
:1027300021438180ED49EC480860ED4C20883F2121
:10274000090188432F21090140182080E8482038DA
:102750008169E84D490D490549198161C169E64D15
:10276000294009256D024919C1614168E34D29409D
:10277000E34D491941608168E24D2940E24D491914
:102780008160C168E14D2940E14D4919C16001698D
:10279000E04D2940E04D49190161E049C51409782F
:1027A00009064919C1256D012943DD4D296005251B
:1027B000DC49AD020D816D1D8D81DA4920310D8915
:1027C0002D0A2D0255350D818D25AD000D82D64D7A
:1027D0008D82D64D0D83D44D0E3D8D83D349D14D81
:1027E000C91D40352980D249A181C16BD14C2140FE
:1027F000D14C0919C163FF20D04C6C302080CF48E8
:102800002030068B1F2149010B258E43AD0176191F
:102810000683CA484030868809278E43BF01F619CF
:102820008680068915278E437F01F61906818689E1
:102830008E4371198181FF208D30A080BF48803088
:102840000189E024A14319430181818B4909490190
:1028500019318183B2482030818B5B0199438918FB
:102860008183AF4880300168C908C900C91C016074
:10287000AB49B34840314862F0BDA94908B50020D2
:102880008031C8620090401C0090FF28FBDDAD48FD
:102890000078AA49C006820D4031C8681F235B0139
:1028A00098431043C86008BDA7488C490068403170
:1028B00008608A488169890989011C3181618169BF
:1028C000C21391438161016B3F221206914307229B
:1028D000920689180163016B3F22920191430F22F6
:1028E000D20189180163016B890989011E310163D5
:1028F00070477A48C16949084900C16170478F48EB
:1029000008B54030C1688F4A8905C90E1170C16889
:102910001F2252019143C160814901208871804882
:102920008030C16A03221143C16200200090401C24
:102930000090FF28FBDD08BD08B5794902208871A9
:1029400000200090401C00900B28FBDB08BD634872
:1029500041210177C169032252029143021589186E
:10296000C16170475D4840300168774A11600021BD
:10297000C943016059488169890989018161816977
:10298000C21391438161C16903225202914303152D
:10299000C918C161C169702399434031C161016B9C
:1029A0003F231B0699430B235B06C9180163016B88
:1029B0003F239B01994389180163016B89098901B0
:1029C000183101637047F8B5554803274771434CE8
:1029D0006068C009C00114306060FFF7C3FF432086
:1029E0002077FFF7A9FFFFF78AFF0025261500953E
:1029F0000098401C0090B042FADB4949032048711E
:102A0000364880308068C705FF0DFFF736FF009518
:102A10000098401C00901028FADBA0694002400A90
:102A2000F9050843A061A06948490840B901084375
:102A3000A061FFF78CFFFFF77FFFFFF760FF0095B6
:102A40000098401C0090B042FADB354903204871E1
:102A5000224880308068C705FF0DFFF70EFF009504
:102A60000098401C00901028FADBA0694002400A40
:102A7000F9050843A061A06934490840B901084339
:102A8000A061FFF764FFFFF757FFFFF738FF0095DE
:102A90000098401C0090B042FADB214903204871A5
:102AA0000E4880308068C605A069F60D4002400AD5
:102AB000F1050843A061A06924490840B101084319
:102AC000A061FFF716FFFFF7EFFEFFF7D6FE0095B8
:102AD0000098401C00901028FADB39E000300040DC
:102AE00000008888FF00FEFF59055C078000004059
:102AF0002020004009581A00FEE1FFFFE0E000003E
:102B00000809294900000303696A686C031FFFFF75
:102B100070600000E0E0E0E00B0A0A08A48CFC070B
:102B20000010004020130040340A0000510800004B
:102B3000070F00002F64E0FE101A0601001200408B
:102B400050015001004FFC07704FFC073F80FFFF12
:102B5000134846810120F8BD35E7704708B5114894
:102B60000821017100210091009A521C0092102A44
:102B7000FADB0091491C00911029FBDB0321417114
:102B800008BD0848022181710021818070470649F3
:102B900008707047044800787047034840787047D1
:102BA000744FFC0700100040A48CFC07F8B500250A
:102BB000204CFF272E46002813D1284610302661CE
:102BC000A082E7826660A660E681A681C0B2214647
:102BD00026605AF70EF96D1CEDB21834002DECD0BA
:102BE000F8BDE08A5EF78AFB002802D041682046E3
:102BF0008847E7826660A660E681207D5AF753F930
:102C00006D1CEDB21834002DEBD0F8BD70B5094C39
:102C100006460025E08A5EF771FB002803D0826833
:102C20003146204690476D1CEDB21834002DF1D08E
:102C300070BD0000AC8CFC07FFB5054685B00720D1
:102C400004901E460121102059F7C6FD04461021AC
:102C50005CF76BFA2C61002F36D10E9800880128A2
:102C600032D10720049030461E210840A98A314AFB
:102C7000002380300191009302920390032304AA61
:102C80002D4906984EF732FA0700069800882081F1
:102C90001AD10698A18801800E9800886081F007FB
:102CA00001D00120C003079908432080A88A6080D2
:102CB0001720E8820120E8810D342048AC6068606C
:102CC000A88A00215AF7C7F8384609B0F0BD10B5F8
:102CD000002201690261084659F7F9FD10BD00693B
:102CE0000022401882737047F8B506690C46708957
:102CF00001281BD1A32A19D03519A87B002815D08B
:102D000030465EF78BFA0746214630465EF78EFA6C
:102D10000146172003233A46000259F76BFEA97BB0
:102D2000417001218170047059F77FFEF8BD0148A0
:102D300024307047804CFC071A180000CC4CFC076C
:102D400010B55CF7C7F932215CF772F9494802788F
:102D50008918017010BDFFB581B00D46002403989D
:102D60005AF78EF8002805D003985AF789F80128F9
:102D70002FD02FE017205EF73BFA06460498070A8B
:102D80000020009030892988801C81420FD10123C6
:102D900009213948039A59F72DFE0721017059F787
:102DA00044FE3773012103985AF755F812E0324870
:102DB00006260723F238039A049959F71BFE0121CE
:102DC00041800099417129880180067159F72DFED3
:102DD00000E00224204605B0F0BD70B5154617206E
:102DE0005EF706FA044628465AF74AF8012818D131
:102DF000207B0723010220482A46F238083159F780
:102E0000F9FD012141801B49097841712189891C03
:102E100001800021017159F708FE002128465AF768
:102E20001AF8002070BD70B515460E4617205EF7E3
:102E3000DFF9044628465AF723F8012818D170789C
:102E4000002815D0207B062301020B482A46F238C1
:102E5000083159F7CFFD012141802189891C01806A
:102E60008021017159F7E1FD0021284659F7F3FF50
:102E7000002070BD9E4FFC07060D000010B57D20A0
:102E80000021C00000F0DFF910BD10B560F730FC84
:102E90000120FDF7B0FC10BD10B504460C204949D7
:102EA000604340188078FF2805D000F0E0F9204604
:102EB00000F0E1F810BDFFF7E1FF10BDDEE710B54F
:102EC00060F7FEFA002801D0FFF7D8FF10BDD5E764
:102ED00010B53D490A780270401C491C5CF70CF99A
:102EE00010BD3949498C01807047082101801021AB
:102EF0004180002181807D21C180704770B50C46E2
:102F000001780025304B002904D0012909D0482040
:102F1000207070BD8278011D1A70581C5CF7ECF8A7
:102F200001E040885884257070BD012008700020A1
:102F300048808880704770B504464079800911D177
:102F40003FF7DDFC014620700A0A62700A0CA2708D
:102F5000090EE170251D3FF7D2FC2870000AC02140
:102F60000843607170BD10B500F0BDFB10BD1FB50A
:102F70004A78002A0AD0154B012A12D0022A10D012
:102F8000032A0DD101231022891C07E010A41ECCB6
:102F900003946C460EC401231022694600F0C2FB64
:102FA0001FBD009301230422F7E710B504464978BA
:102FB00000F08EFA204600F0F4FB204600F0E5FB1E
:102FC00010BD0000DC8CFC07E88CFC0740E201002F
:102FD000000102030405060708090A0B0C0D0E0F79
:102FE0000021AD4A05E0834201D101207047491C10
:102FF000C9B20C234B43D35CFF2BF4D100207047A4
:1030000070B5A54AA54C15460C350DE089184968E0
:10301000002907D0C1B20C23594389184968401CC4
:10302000607025E0401C607060780C214143535C67
:10303000FF2BEBD10AE049194968002903D0FFF7BB
:10304000CFFF00280DD02078401C207021780C2064
:103050004143685CFF28EED10020607020700120A1
:1030600070BD20780C21414349194968401C2070EB
:103070008847002070BDF8B505460024864E0AE05A
:1030800080198168002904D0641CE4B2284688476E
:1030900001E0641CE4B220460C214843315CFF2966
:1030A000EED17D4E00240C3609E08F19B968002955
:1030B00003D0FFF795FF002808D0641CE4B2214636
:1030C0000C204143705CFF28EFD1F8BD641CB96847
:1030D000E4B228468847F2E7F8B5704DE868002862
:1030E00041D15223042209216D4859F783FC04463B
:1030F000E8600D202070002161706A48A080E080A7
:1031000007202072A172012060721B20E07202462B
:1031100020460C3064A107465BF7EEFFE8680B2100
:103120002030C17220460A462C3066A106465BF765
:10313000E3FFE968C87A2031C97A0E300B311F28C5
:1031400006D8E07A0921C219204661A30B3008E0B5
:103150001F2908D82B20005D5DA382192046092174
:103160002B3060F7D7F9E868F8BD70B54B4EB06802
:10317000002829D14A482C2304220921093859F76B
:1031800039FC032101700A21B0604170F7210184EC
:10319000002585760446458010210A305BF7C5FF7F
:1031A0002021E176A583E5834C486584C08FFB210F
:1031B000FB2800D908464949E0844031484809883D
:1031C000814200D808462085B06870BD10B560F710
:1031D000F5F93248002282704169002901D042612C
:1031E000884710BD3EB500252B49009501950C225E
:1031F0003431684602955BF77FFF28480C2218306F
:1032000069465BF779FF254C09222434227030A1EE
:10321000601C5BF771FF204965842431042059F755
:10322000E8FD0021042059F716FE3EBD10B5FFF75A
:1032300053FF59F7FAFB19490020C8600221042006
:1032400059F709FE10BD70B5144C0646A0780D461E
:10325000002801D000F05BFB002D00D06561214902
:10326000304600F035FBA070FFF7E0FF70BD10B5F1
:103270000A4CA078002801D000F049FB0020A07083
:10328000606110BD10B5FFF770FF59F7CEFB034921
:103290000020886010BD0000E44CFC07C48CFC07D3
:1032A0000D0D00004C040000090303180218041857
:1032B000F5FE1024162F2F7777772E69616E612E19
:1032C0006F7267000AFF00D2444C472D424C450004
:1032D000444C472D50524F5852000000F0BBFC07A1
:1032E00048080000CD31FC0710B5104659F7C8FD5D
:1032F000002802D000BE002010BD012304220921B5
:103300006E4859F777FB0121017059F78EFBF2E700
:1033100010B508780F281BDA0C2819D004DC012816
:1033200005D0032814D108E00D2811D10DE048780C
:10333000002805D1FFF7A6FF0AE04878002801D051
:1033400000BE05E000F035FC02E0487800F085FCA6
:10335000002010BDF8B51C4610460E4659F790FDEA
:10336000022802D000BE0020F8BD240A00D000BE12
:103370000C202746474352483D18AC70FF2C1AD00A
:103380000121E9700321042059F765FD4C4831887B
:10339000C153707A28713146681D06220A315BF7E5
:1033A000ABFE7A204749604340186030017E01221D
:1033B000204660F799F83146204600F0F6FBD2E748
:1033C0000A784878092A02D0002800D000BE0020E0
:1033D000704770B51D4610460C4659F751FD2A0A34
:1033E000032802D000BE002070BD0C2042433448A8
:1033F000FF21101881700021C170204600F0D0FB21
:10340000F1E7F0B5087800252F4C89B01F46164625
:10341000002804D0012817D0022827D129E06846C7
:10342000FFF756FD684603783246394620460A3390
:1034300059F7E0FA0446057068460278411C62803C
:10344000201D5BF759FE2BE069460D806846FFF7AB
:1034500048FD0A2332463946204659F7CBFA012166
:10346000017069460988418059F7DFFA002009B0E8
:10347000F0BD0A233946204659F7BCFA044668468F
:10348000FFF733FD022020706846008860806846A0
:103490004088A08068468088E0806846C088208197
:1034A0002046E1E7FEB51C46089B0E26074D6F46F9
:1034B00068C7134622465FF71BFFFEBD020D0000E2
:1034C000DC8CFC07228DFC070B0E0000244DFC0752
:1034D000F8B50E467A2148430B4D0746441920465D
:1034E000082226771430114600F06AFAA01C102238
:1034F000314600F065FA3FF702FA6082E85D01218B
:103500000843E855F8BD0000228DFC0710B50A7885
:10351000180A13005BF744FE0805191919131A1A43
:1035200016190C22434C424312190123D3727A22FA
:10353000414C00234243A354FFF715FD06E0FFF77B
:1035400016FD03E0FFF731FD00E000BE002010BDD6
:10355000F8B5180A1B0A00901C460C267A20364D36
:1035600073430A784443334E601907469E19921EEE
:10357000603713005BF714FE060412351921293554
:1035800089783976C90706D0711D062271305BF73C
:10359000B3FD3079F8750020F07222E00020F0725F
:1035A000387600985FF7ECFF1BE017223A30891C51
:1035B0005BF7A2FD285D042111E010226130891C17
:1035C0005BF79AFD285D102109E04A8A002A0AD09B
:1035D0001C221E30891C5BF78FFD285D02210843E9
:1035E00028550020F8BD1C22801C891C5BF784FD37
:1035F000285D0121F3E700207047180A7A22504322
:103600000D4A09788018603001760020704700204C
:1036100070470020704700207047FEB51C46089B8D
:103620000726064D6F4668C7134622465FF760FEC1
:10363000FEBD0000DC8CFC07228DFC07944DFC07CE
:10364000052000070089000608D501208007006BCF
:10365000000403D403480078C00701D0002070475D
:103660000120704754BAFC0770B51049049C4118FA
:10367000052901D3012070BD00F00FF800250028B6
:1036800007DB0B4A81005058002803D05550804773
:1036900000E000BE2570002070BD044940180528D8
:1036A00001D240B270470020C0437047F2FBFFFFD9
:1036B000A08DFC07F8B5484D84002959002910D188
:1036C00001021E23042245480A3159F793F90126C5
:1036D00006700746285107224149801C5BF70CFD04
:1036E0007E702859F8BD10B50446FFF7E3FF59F77F
:1036F0009CF90020384AA100505010BD70B5364DDD
:1037000084002D1D2959002901D0084670BD0102F1
:103710001E23042231480A3159F76CF90421017043
:10372000285170BDFFB581B01F460446FFF7E6FF84
:10373000294D0646A4002D1D28591021801C5BF739
:10374000F4FC2859039A801C02995BF7D5FC77702A
:10375000304659F76AF90020285105B0F0BD70B520
:103760001D4D84000C352959002901D0084670BD33
:1037700001021E23042219480A3159F73BF9072197
:10378000017001214170285170BD10B50446FFF74A
:10379000E6FF59F74AF9104A0020A1000C325050B8
:1037A00010BD70B50546FFF7DAFF04467A204543A1
:1037B0000C4808222D18287F2077688A60822946C5
:1037C0002046143114305BF797FCA91C1022A01C72
:1037D0005BF792FC70BD0000B48DFC07140E000076
:1037E000904EFC07228DFC077047704770B50D4660
:1037F0000446FFF725FF002806D06B482A4604211F
:10380000201859F736FC70BDFDF711F86648042200
:1038100008231146801E59F7EDF84560047059F7EA
:1038200004F970BDF8B5614C069D06190024002E00
:1038300026D0012E0CD05F4F5D4B3A46283A022E1F
:103840000AD05A49C91E41180A2927D30120F8BDB8
:1038500000F080F8287039E00878461E092E0DD84F
:103860008000001F105898422FD1B0003B581350D1
:103870004A6808781146FFF7B9FF26E000BE24E049
:103880004A68002A02D04C48824200D900BE08781B
:1038900045494018042159F7ECFB16E04349891EBD
:1038A0004018C0B2411E0929E8D88600B218803AF3
:1038B000D16F002909D0994207D0404B994204D0DA
:1038C000D467F219803AD46788472C700020F8BD7D
:1038D0000A46010010B5384801D0814200D900BE27
:1038E0000020344B283B84001C59002C04D0401C81
:1038F0000A28F8DB002010BD84001A51401C040681
:10390000240EF7D02046FFF771FF204610BD70B59A
:103910000446401E09281BD82648A10028380D1847
:10392000803DE86F002813D0244EB04210D01E48CE
:103930000421201859F7E7FB1B48042208231146ED
:10394000401EEE6759F756F8047059F76EF870BDCF
:1039500000BE70BD10B508780C46411E09291FD85D
:1039600082001448121F28388258144B9A4205D1FD
:103970000022890042502830425012E0890040580D
:103980000B4988420DD1042208231146064859F7F5
:1039900031F8217801706168416059F746F800E01C
:1039A00000BE002010BD000003040000FFFBFFFF6D
:1039B000EB37FC07F48DFC07FCFF3F00E937FC0701
:1039C00010B58A4201D35FF7CBFC10BD10B5FFF7ED
:1039D000B7F910BD10B50A23042209210A4859F786
:1039E00009F804461B20207017205FF755FE607011
:1039F000172060800420A0800020E0800121218128
:103A0000204659F712F810BD1B0D0000002070472A
:103A1000FEB51C46089B0126034D6F4668C713463A
:103A200022465FF765FCFEBD984EFC0770B558480E
:103A30000022C16AD243002901D0114600E00121D1
:103A4000CB174C0DDB022343CC02C16251490D68F8
:103A50004E682C4333430C604B60436A002B01D00B
:103A6000144600E00124E317E50D5B022B4344629A
:103A70000D6864024E682C4333430C604B6043680E
:103A8000002B01D0144600E001244460E317241900
:103A90000D685B414E682C4333430C604B600369F7
:103AA000002B01D0144600E00124E317250F1B0171
:103AB0002B4304610D6824014E682C4333430C6092
:103AC0004B600368002B01D0134600E00123036024
:103AD0000D68DC174E682B4334430B604C60C368A1
:103AE000002B00D10122C260D017530FC000184331
:103AF0000C68D2004B68224318430A60486070BDCE
:103B000038B50024FF22234601320B2120460094C1
:103B1000FDF78DFC032500232D022A4609211846B6
:103B20000094FDF784FC0120014600901D232A46E5
:103B30000020FDF77CFC1C232A4604210020009471
:103B4000FDF775FC00211B232A4608460094FDF76B
:103B50006EFC00221A23032110460094FDF767FC37
:103B600038BD70B50C4C012525801B20FDF784FB6A
:103B700000F04EFE0948FDF7DBFF08480838FDF766
:103B800026FFFFF7BDFFA089A8432843A08170BD91
:103B9000D08BFC07C88BFC0700030050A84EFC0725
:103BA00010B50020FFF78AF910BD10B5FFF774F9C2
:103BB00010BD10B5FFF70AFFFFF781F910BD10B572
:103BC000FFF763F910BD704710B52F4C86B0A06A9F
:103BD000C2B2FF2060622D48C368012149050B4332
:103BE000C360C3688B43C3607F2191432162C16876
:103BF0000122D20491430022C160C168244B1940C4
:103C000009239B031943C160C168C823890A89023B
:103C10001943C160C16801231B051943C1601D49D7
:103C2000049203C9039101910290009069460879BA
:103C30000A30087104A8FEF70EF9002102A8FEF769
:103C400021F9022200216846FEF778F9E069402157
:103C50001148FEF706F906B010BD10B5442812D180
:103C600005200007018A022291430182818A090707
:103C7000FCD5FDF761FFFFF7A7FF012200231146E6
:103C80001046FCF73BFD10BD004100504042005083
:103C9000FF03F8FFB44EFC07C73BFC07F8B5074627
:103CA00001200023024600901946032045F7AAFB95
:103CB0000446022180300170FF4DFE482A68438887
:103CC0001146FF31F7310B8680884886FB48066A2B
:103CD0000123DB069E431E430662FF320020FF32B3
:103CE000383250829082D0821D200882F448488465
:103CF000F448C882F448088300204882384645F7D3
:103D0000C1FE01462868FF30F730C28B920992014C
:103D10000A43C283ED48416800208847002C02D046
:103D2000204644F758FF2046F8BDFFB58BB0064645
:103D300016980027022821D00D98018814988142F6
:103D400078D37188084640383F2802D8159851F733
:103D500055FF0C98361D0088149A80190E995BF750
:103D6000CBF90C980188149808180C9908800D98C4
:103D700001881498081A0D9908805CE100200E9DB6
:103D8000079069782C78090221433180E978AC7872
:103D90000902214371808C46403904242D1D0246BE
:103DA00003468E46402900D32878614604291FD057
:103DB000052914D0062918D070463F283DD81598FB
:103DC00051F71CFF0006000E04D0C148008D00060C
:103DD000C00F30D002230120BE4A002712E06978CC
:103DE00000290FD0BC4A17230CE0BC4A0F2309E07E
:103DF000522802D0D22802D002E0142000E0152080
:103E0000B74A1F23002A1AD0984218D280001058AF
:103E10000490002813D00020089005907088403846
:103E2000402803D32878052430716D1C701D009044
:103E30000498B5E0FEE03027F0E03327EEE070882C
:103E4000042872D10627E9E0522862D00CDC4B2806
:103E50003FD004DC41286AD0422858D111E04C28D8
:103E600020D0502853D140E0632830D004DC5728BC
:103E700018D061284BD19BE06C2864D0772846D1BC
:103E800009E00098297801700098641C401CA4B2D5
:103E90006D1C009081E00498401C04900178089803
:103EA00081427AD10098A41C401C41084900881C1A
:103EB000009068782A780002104308800599AD1CAC
:103EC000A4B2002969D008900020059065E0012087
:103ED000FBE71022294600985BF70EF90098103492
:103EE0001030A4B21035009057E0204640301499AD
:103EF000039088420BD84022294600985BF7FCF8D3
:103F00000098403000900398403584B245E0342753
:103F100043E00822294600985BF7EEF80098083441
:103F20000830A4B20835009037E068E0FFE70622C9
:103F3000294600985BF7E0F80098A41D801DA4B204
:103F4000AD1D009029E01498001B80B203903088CA
:103F5000001B001D81B2012007900498401C0490B2
:103F60000098401C400840000090049800785728B2
:103F70001CD04228CBD100980170090A41700098EA
:103F80002946801C0090039A5BF7B6F803980399C2
:103F9000201884B20098401800900498401C0490A7
:103FA000007800281ED0002F17D01BE04908E2E758
:103FB0001498001B81B200980391401C40084000F7
:103FC000009001200A460790294600985BF794F874
:103FD0000399601884B20098DDE70D990988A14221
:103FE00000D331E70D980088A04208D304990978DE
:103FF000002904D10799002903D1A04201D0342718
:104000000CE00D99001B08800C9801880098801B1B
:10401000001F08180C99002F08800CD07088042805
:1040200009D0062807D04038402804D30E9840799C
:10403000707100E0342738460FB0F0BDFFB581B095
:104040001F4616460C46104658F71AFF00257F28D3
:1040500002D02189062909D03B46324621460198E3
:1040600052F75FF90546284605B0F0BDC00601D5F8
:104070000225F8E720780028F5D1300AA11D3EF787
:10408000E8FAF0E7F1B598B018983EF7E0FC04467E
:10409000189805210079134A4006C00F0990684618
:1040A0000184618B08460A38904276D2E08A06285D
:1040B00073D319E030BCFC074CB9FC07C0000040CA
:1040C00010800000294100007671000058BFFC07F5
:1040D00048BEFC073803F2074003F2079C03F207CF
:1040E000D803F207770C00001922D201904254D86D
:1040F000228BFF23F5339A424FD8521C9300D218DB
:104100004243521C0A23521059438A4245DC217F04
:1041100000290CD1617F002909D1A17F002906D196
:10412000E17F002903D12021095DC90635D027464A
:1041300020377978C906C90E491F0C292DD2A18ACA
:1041400081422AD8E17C002927D0421E082A01D9C1
:10415000082000E0401E81421FD8684642F738FD23
:1041600000281AD1FE4D0622286221460BA85AF7D4
:10417000C3FFA8792E46803E00287DD06079800953
:1041800001280BD00BA8099948F7F1FF010003D0D3
:104190003820405C002870D09CE009E1F06A807A09
:1041A000012808D0042806D00BA849F74DF828624A
:1041B00000284ED054E0686A06220BA932305AF724
:1041C000BFFF002806D00BA849F73EF82862002858
:1041D00002D012E0686AF9E700210BA849F74AF813
:1041E0002862F16A897A012905D18B071A68490684
:1041F0008A430A431A60002811D0F16A286A06220D
:10420000253010315AF79CFF002808D1286AF16A3E
:104210002030C07AC97B884201D1286A1EE0D1488B
:10422000D1490088C96880B20622504308183EF779
:1042300013FC014614A8062202305AF75DFF13AAA8
:1042400000213C203EF7D5FE0121B06D44F7FCF87B
:10425000AAE011A90BA849F70DF82862002839D067
:1042600001460A9006220FA825315AF745FF0A9900
:1042700008AA2031C97A01E042E025E00FA848F7FA
:1042800059FE002812D0286A2030C07A002809D1AF
:104290006846B649008C47F7C0FD08AA0121B3481B
:1042A00048F748FE68460BA9008C0AE008AA0121DD
:1042B00011A848F73FFE00280CD0296A6846008CF8
:1042C000323147F7C0FD05E00A18527D002A08D0B8
:1042D00010286DDBF06A407A022806D0032804D04B
:1042E0000EE0401C1028EFDBF4E76846008C052840
:1042F00006D308AA0BA8099948F71CFE002857D036
:1043000000226946204648F7BEFE002850D1F06AD8
:10431000407A02280BD0032809D00023684602887F
:104320000BA8099948F7D0FE002802D02FE00123FE
:10433000F4E7E18A68460181218B4181618B8181AB
:10434000787806224109684681757878C106C90ED9
:104350006846417521460E305AF7CEFE189800790E
:104360004006C10F684601750388214602A8B26D58
:1043700043F710FC0146B06502A83EF788FE002016
:10438000B065214668461C31008842F774FC45F749
:10439000F3FC734C2034207A002805D0002109203A
:1043A00058F7B1FE002020720021084658F753FD4F
:1043B00019B0F0BDF8B56E4C064685000F46605941
:1043C0004C21095C24290ED140691022791D2E3020
:1043D0005AF792FE61592520403108730022114698
:1043E000304650F75EFD60594C21095C0C291FD105
:1043F00040691022791D2E305AF77EFE60595F21E8
:104400004069095C09072DD401462E3110221E3067
:104410005AF796FE00280CD06059092140300173EC
:10442000304651F75BFA01460022304650F7B8F8A3
:10443000F8BD0421684601706A460521304650F7F0
:1044400059FA684601786020014368460170304699
:1044500051F744FA0146684602780123304650F786
:10446000B4F9F8BD304651F739FA012809D060593E
:1044700007214030017300221146304650F711FDEC
:10448000F8BD615900204969C03188716059042123
:10449000426930461E3250F72DFA60594169403169
:1044A000897F002907D01A2140300173002130464E
:1044B00050F781FDF8BD1B2140300173304650F7A5
:1044C000CFFDF8BDF8B52A4C05468600A0594C2210
:1044D000125C192A11D140224D30491D5AF70CFEA9
:1044E000A059402223494D305AF72AFE002805D012
:1044F00020492846203957F78EFFF8BD0B21684622
:1045000001706A460521284650F7F4F9684601789B
:104510006020014368460170284651F7DFF90146E3
:10452000684602780123284650F74FF9F8BDFFB5D9
:1045300081B003980C46060A002558F7A1FC002814
:1045400027D0132825D0142823D00B48B700C059F2
:104550002030407BC00637D5039858F791FC0DE01A
:1045600030BCFC0768B9FC0760BBFC0750F5F107DD
:104570003CBEFC07FCBDFC0778BBFC0715280CD033
:10458000A0793EF757FA304643F7F2FA032806D0EF
:1045900015E0A0793EF74EFA1FE002251DE0A8487D
:1045A000C0592030407B400704D53D2130463EF7BE
:1045B0003FFF04E03D22002130463EF748FF3D2109
:1045C000304642F71DFB08E0204610389D49018126
:1045D000468120464BF706F80125284644E5F8B504
:1045E00010460D46140A58F74BFC010030D0944891
:1045F000A200835801271E8BBF023E431E8313294E
:1046000026D0142924D0152911D080582D21095CD9
:104610000123CA06002A0CDA0246A032967D002E3B
:1046200007D093753D21204642F7EAFA10E00220B8
:10463000F8BD090703D50021A0308175F7E7A03048
:10464000837520463FF774FC294620463FF7A8FCB7
:104650000020F8BDFFB581B01546170A104658F77F
:104660000FFC002837D0132835D0142833D0290A5E
:104670008C00734E152815D0FF202946033058F7BB
:1046800042FD30592D21095CC90603D5A030C07DFB
:1046900000280DD03D026D1CA8B258F7F1FB192877
:1046A0000BD00EE030590121A030C1750220DBE4AF
:1046B0003D21384642F7A4FA0DE0A8B2012158F78F
:1046C000CAFB30590122018B5202914301833846C3
:1046D00002993FF765FC0020C6E4F0B55849870011
:1046E000C959002680314A8C8B8C1B2A00D21B2290
:1046F0008C8B944200D222468A849A4200D00126B2
:104700000B8CCD8C1B2B00D21B23CC8B9C4200D25C
:104710002346CB84AB4200D001260B8ECD8D9C4628
:10472000FF2349339D4201D21C4600E02C460D8DEB
:10473000A54200D325460D86654500D001264C8E46
:10474000A4468C8D9C4200D21C464B8DA34200D2C5
:104750001C464C86644500D00126EB080B3B9BB2FF
:104760009A4200D213468B86522335495843364B22
:10477000CA591C688032D28C0419FF34D2B2013479
:104780002286C9591A6880318018FF30498E01305D
:1047900041863046F0BD2D48522200686430818841
:1047A000C37E5143284A12688918FF225F32525A49
:1047B000FF31120AD21A01310B8CD2B2DB0B09D0B5
:1047C0000B8C5B045B0C0B84002A03D18088204A8D
:1047D000012111547047FFB51746140A81B0184AD9
:1047E0000298A100515840780026194D002907D0A1
:1047F000295D002905D0002803D1204640F77CF828
:104800002E553A46049B0299019841F706F82BE48D
:1048100010B518220F4910485AF76EFC0D4B0F487F
:104820000C3B0ECB0EC00C480D49A03001600D4969
:10483000416009490C482039086010BD70470000EC
:1048400078BBFC07060800004CB9FC0784BBFC07DA
:104850001C8EFC07C84EFC0720000840C000FC0767
:104860000459F007490C00BF07001000064C012551
:10487000064E05E0E36807CC2B430C3C9847103408
:10488000B442F7D3FBF748FCE04EFC07004FFC07AF
:10489000F8B5040C8BB2264682B25E430D0C10466E
:1048A000370C5843360480190021794116466E436F
:1048B000370C36048019794126466E438919F8BDB4
:1048C00002E008C8121F08C1002AFAD170477047D9
:1048D000002001E001C1121F002AFBD17047F40142
:1048E000060070CAEA80D00706406432DE48FC0742
:1048F000588BFC07B124FC074F25FC0793DEF0071B
:10490000F1DEF007F9DEF00749DFF00761DFF007BD
:1049100077DFF00799DFF00719E3F007BDE5F0074F
:10492000FDE3F0071DE4F0073DE4F0077BE4F0074A
:104930008BE4F007F5F9F007B1F7F007CFF7F007D0
:10494000EBF7F00705F8F00719F8F00797F8F0070C
:10495000AFF8F007DFCDF10767D0F107DBB9F0075B
:10496000CD0DF207B10EF207AD0EF207A90EF20758
:104970008D21F0079306FC075520FC07910AFC07E0
:10498000C309FC07AD09FC07B57EF007837DF0077E
:104990009D3CFC07599EF107634CF107AD2BFC07CA
:1049A000D110F2070D2CFC07B111F2074112F207EA
:1049B0007912F207000000008F06FC079106FC0741
:1049C000B9C6F007D592F1072B3DFC075F9DF107B3
:1049D0005F9CF1073D40FC07EB72F107B922F1073C
:1049E0006B04F1076506FC072BA4F007F1D2F00772
:1049F0005FBDF007D5BDF00785BEF007DB46FC07BD
:104A0000752EF0071581F007DF7FF0070937F007F3
:104A1000000000007F06FC078706FC076706FC070E
:104A2000F3C3F10775C4F10703C5F107A725FC0718
:104A30000000000000000000000000000000000076
:104A40000000000000000000000000000000000066
:104A50000000000000000000000000000000000056
:104A60000000000000000000000000000000000046
:104A700005000000A055FC07000400002C92FC0774
:104A8000AC020000208EFC0700040000E494FC0748
:104A9000700500002003000000A60E0004000000C6
:104AA000D2000000320000003C00000001000000C5
:104AB00001000000020000000200000004000000ED
:104AC00003000000060000000000000002000000DB
:104AD00002000000000000000000000003000000D1
:104AE00003000000050000000500000006000000B3
:104AF0000A0000000A000000C8000000B80B000017
:104B000002000000B80B0000B80B0000100000000D
:104B1000D4010000CC010000700200006A00000017
:104B20000400000001000000200000000A00000056
:104B300001000000E20400008A020000DC05000021
:104B4000AF000000EC48FC0700000000000000007F
:104B5000744CFC07704EFC070000000001040000CC
:104B6000000000003F000000000000000100000104
:104B70002F45FC0701001D01DF45FC0701001E0158
:104B80005546FC0701000002D747FC070000000063
:104B9000000000002000800000C000000000840031
:104BA00000002822000000000000040000F7FFFFC2
:104BB0007F00000030F0FF0F000000000004000044
:104BC00000000000000000000000000000000000E5
:104BD00000000000FF0F000001009909030099097F
:104BE000070099090F0099091F1099092F209909A9
:104BF0005F519909080004900000000000000000C7
:104C0000030005D08B0035F010005CF0000010B000
:104C1000000018B000001AB0030051F0000038B0D6
:104C200000003AB0000064B0000066B0000022B09E
:104C3000000024B0010005D0000000000A00008040
:104C400008030490000004F0030006D000000000F8
:104C50000A00008008030490000004F0030006D05E
:104C600000000000170000002F2DFC07FF000000CF
:104C700000000000644CFC07AC8CFC070100000045
:104C800000280000010000000000000003280000D0
:104C900001000000020000001C2A000001000000CA
:104CA00001800000392CFC07CF2CFC07DF2CFC070F
:104CB000E92CFC07130C0000572DFC07090D000020
:104CC000DB2DFC07000D0000272EFC07B44CFC0771
:104CD0000300000000004C044C0407010001020323
:104CE00004050600FF0000000000000000000000B6
:104CF00017000000D539FC0700000000FF0000008D
:104D0000000000000000000000000000583FF20713
:104D1000208DFC07040001000000000000000000DE
:104D200000000000010D0000E932FC07000D00004A
:104D30001133FC07000E0000C133FC07010E000018
:104D40005533FC07030E0000D333FC070A0E0000A6
:104D50000334FC070C0E00008531F2071C0D000027
:104D6000C731F207100D00008530F2070F0E00006A
:104D7000F931F2072C0E00003932F207120C000054
:104D80005332F207080E00006F32F2071B0E0000CC
:104D90009F30F207130E00000D35FC07150E0000C2
:104DA0005135FC07170E0000F735FC07190E0000FF
:104DB000FB35FC07150D00000F36FC07210D000028
:104DC0001336FC07220D00001736FC07AB3BFC072F
:104DD000A13BFC070000000000000000B33BFC0703
:104DE000000000005B3CFC0700000000CF2EFC0729
:104DF000000000000000000000000000D12EFC07B1
:104E0000E32EFC07EB2EFC07FD2EFC070000000044
:104E10002B2FFC07372FFC070000000000000000CC
:104E2000672FFC076F2FFC07000000000000000048
:104E3000AB2FFC0700000000000000000000000095
:104E40000000000000000000000000000000000062
:104E50000000000000000000A534FC072538FC0716
:104E60006936FC071B36FC07113AFC07F800000006
:104E70008532FC070130FC07CC4DFC070000000028
:104E8000584EFC07DC8CFC07228DFC070C8DFC07C0
:104E90000300001000010000001700000D3AFC079D
:104EA0000000A00F0800010000000000000000004A
:104EB0000000040000000B371E0000008540FC07C6
:104EC000B543FC07C544FC07F99DF007000000004E
:104ED000E3A1F107000000004FA4F107000000006B
:104EE000044FFC07084FFC0798060000D048FC0759
:104EF000288BFC07288BFC07F8020000D048FC0731
:044F00000E0000009F
:0400000507FC0111E2
:00000001FF
